:100000001EC10000A4C30000CDC30000F6C3000061
:100010001FC4000048C4000071C400009AC400005E
:10002000C3C400003DC100003BC1000039C1000055
:1000300037C100000C94D90B33C1000031C100005E
:100040002FC100002DC100002BC1000029C10000FC
:1000500027C1000025C1000023C10000D0C400005A
:100060001FC100000C9471080C94A70819C100006E
:1000700017C1000015C1000013C1000011C100002C
:100080000FC100000DC100000BC1000009C100003C
:100090000C94FD080C94330903C1000001C1000059
:1000A000FFC00000FDC00000FBC00000F9C0000060
:1000B000F7C00000F5C00000F3C00000F1C0000070
:1000C000EFC00000EDC000000C94680C0C9489098E
:1000D0000C94BF09E5C000000C94150A0C944B0A5F
:1000E000DFC00000F705FC0501060B0615068E06AD
:1000F0001F0627062F06390643064D065C066606D0
:100100008E0670067A068406B206B506A406A80610
:10011000AE06EC06B906BD06C306C706CB06D10679
:10012000D506D906EC06DF06E306E70600000A0B53
:1001300002090C0D0E080703040100000000000076
:1001400000000000000000000000000000000000AF
:10015000000000000000000012111000000000006C
:10016000000000000000000000000000000000008F
:1001700000000102102020080810204010204080BC
:10018000020102010804020101020408102040805B
:1001900080402010080402018004020180402010E9
:1001A0000804020108040201010204081020408032
:1001B0000102040810204080050505050705080810
:1001C0000808020202020A0A0808040404040101E1
:1001D00001010101010103030303030303030407F6
:1001E00007070C0C0C0C0C0C0C0C0202020206068D
:1001F0000606060606060B0B0B0B0B0B0B0B000083
:100200002200250028002B002E00310034000201BE
:100210000000050108010B01000021002400270057
:100220002A002D0030003300010100000401070105
:100230000A010200D0085C09E809740AE00A1124E6
:100240001FBECFEFD1E2DEBFCDBF00E00CBF12E09A
:10025000A0E0B2E0E2E8FDE100E00BBF02C00790E1
:100260000D92A637B107D9F725E0A6E7B2E001C0A5
:100270001D92AC3BB207E1F711E0CFE1D1E000E025
:1002800006C021970109802FFE010E94B70ECA31D6
:10029000D10780E00807A9F70E940E0D0C94BF0E4D
:1002A000AFCE662311F061E001C060E096C5662321
:1002B00011F061E001C060E0CCC5FC0191E08091EB
:1002C0009305811190E092830895CF92DF92EF928F
:1002D000FF92CF93DF93809193058F5F823018F464
:1002E0008093930502C010929305C0901202D090A3
:1002F0001302E0901402F090150220E030E040E894
:1003000053E4C701B6010E944C0D87FF0EC020E0E8
:1003100030E0A901C701B6010E942E0E87FD07C07B
:10032000C701B6010E94500D03C06FEF01C060E02D
:1003300082E0BDDFC0901602D0901702E090180254
:10034000F090190220E030E040E853E4C701B60124
:100350000E944C0D87FF0EC020E030E0A901C701CC
:10036000B6010E942E0E87FD07C0C701B6010E948C
:10037000500D03C06FEF01C060E083E098DFC090D4
:100380001A02D0901B02E0901C02F0901D0220E0A7
:1003900030E040E853E4C701B6010E944C0D87FFEE
:1003A0000EC020E030E0A901C701B6010E942E0E68
:1003B00087FD07C0C701B6010E94500D03C06FEF53
:1003C00001C060E087E073DFC0901E02D0901F0282
:1003D000E0902002F090210220E030E040E853E479
:1003E000C701B6010E944C0D87FF0EC020E030E02F
:1003F000A901C701B6010E942E0E87FD07C0C701E3
:10040000B6010E94500D03C06FEF01C060E088E0AC
:100410004EDFC0902202D0902302E0902402F090A0
:10042000250220E030E040E853E4C701B6010E9415
:100430004C0D87FF0EC020E030E0A901C701B601D6
:100440000E942E0E87FD07C0C701B6010E94500D05
:1004500003C06FEF01C060E070E080910A02A0D39A
:10046000E0919605F09197052091260230912702A0
:10047000409128025091290260817181828193818B
:100480000E944C0D87FF09C0C0902A02D0902B0219
:10049000E0902C02F0902D0208C0C0902E02D09067
:1004A0002F02E0903002F090310220E030E040E88E
:1004B00053E4C701B6010E944C0D87FF0EC020E037
:1004C00030E0A901C701B6010E942E0E87FD07C0CA
:1004D000C701B6010E94500D03C06FEF01C060E07C
:1004E00070E080910E025CD3C0919605D091970583
:1004F0008091850590918605A0918705B09188052A
:10050000BC01CD016F5F7F4F8F4F9F4F609385057B
:100510007093860580938705909388050E947C0DD3
:100520002091890530918A0540918B0550918C0569
:100530000E94320E688379838A839B8380918D0524
:1005400090918E05A0918F05B09190050196A11D07
:10055000B11D80938D0590938E05A0938F05B09368
:100560009005DF91CF91FF90EF90DF90CF900895AD
:10057000CF93DF93CAE0D2E088A5EDD28CA5DF91BE
:10058000CF91E9C2CF92DF92EF92FF920F931F9328
:10059000CF93DF93E8E0F5E08CE9DF011D928A95C7
:1005A000E9F784E995E095838483C6E9D5E0D093A3
:1005B0004705C093460509E815E0138B028BF093BD
:1005C0007105E0937005F383E28321E030E0DC0104
:1005D0002D933C938CE492E09187808788E995E0A5
:1005E000998388834DEC5CEC6CE47DE3F8014083F7
:1005F000518362837383C4EAD5E088E1DE011D92F2
:100600008A95E9F70AE012E0F80160A571A582A5D4
:1006100093A50E945C0CD8019C966D917D918D9163
:100620009C919F970E945C0CC12CD12C7601C394A5
:10063000CC8ADD8AEE8AFF8A61E082E032DEC88AF7
:10064000D98AEA8AFB8A61E083E02BDECC86DD86EC
:10065000EE86FF8661E087E024DEC886D986EA86DA
:10066000FB8661E088E01DDE61E0F8018081B5D3A2
:1006700061E0D80114968C91DF91CF911F910F9179
:10068000FF90EF90DF90CF90A8C38091B805909134
:10069000B905A091BA05B091BB050197A105B105B7
:1006A00061F482E090E0A0E0B0E08093B805909320
:1006B000B905A093BA05B093BB058091B40590919C
:1006C000B505A091B605B091B7050197A105B10593
:1006D00061F482E090E0A0E0B0E08093B4059093F4
:1006E000B505A093B605B093B7058091B00590917C
:1006F000B105A091B205B091B3050197A105B1056F
:1007000061F482E090E0A0E0B0E08093B0059093C7
:10071000B105A093B205B093B3058091AC0590915B
:10072000AD05A091AE05B091AF050197A105B1054A
:1007300061F482E090E0A0E0B0E08093AC0590939B
:10074000AD05A093AE05B093AF05089508951F922F
:100750000F920FB60F9211240BB60F922F933F9367
:100760004F935F936F937F938F939F93AF93BF93B9
:10077000EF93FF93E0913E02F0913F021995FF91B4
:10078000EF91BF91AF919F918F917F916F915F9109
:100790004F913F912F910F900BBE0F900FBE0F9076
:1007A0001F9018951F920F920FB60F9211240BB63F
:1007B0000F922F933F934F935F936F937F938F93FA
:1007C0009F93AF93BF93EF93FF93E0914002F0911B
:1007D00041021995FF91EF91BF91AF919F918F9138
:1007E0007F916F915F914F913F912F910F900BBE31
:1007F0000F900FBE0F901F9018951F920F920FB67B
:100800000F9211240BB60F922F933F934F935F9348
:100810006F937F938F939F93AF93BF93EF93FF93C8
:10082000E0914202F09143021995FF91EF91BF913F
:10083000AF919F918F917F916F915F914F913F9178
:100840002F910F900BBE0F900FBE0F901F90189519
:100850001F920F920FB60F9211240BB60F922F9387
:100860003F934F935F936F937F938F939F93AF9338
:10087000BF93EF93FF93E0914402F09145021995E5
:10088000FF91EF91BF91AF919F918F917F916F9168
:100890005F914F913F912F910F900BBE0F900FBE24
:1008A0000F901F9018951F920F920FB60F92112460
:1008B0000BB60F922F933F934F935F936F937F935A
:1008C0008F939F93AF93BF93EF93FF93E0913A027F
:1008D000F0913B021995FF91EF91BF91AF919F91DC
:1008E0008F917F916F915F914F913F912F910F90D9
:1008F0000BBE0F900FBE0F901F9018951F920F9276
:100900000FB60F9211240BB60F922F933F934F9374
:100910005F936F937F938F939F93AF93BF93EF9367
:10092000FF93E0913C02F0913D021995FF91EF9108
:10093000BF91AF919F918F917F916F915F914F91F7
:100940003F912F910F900BBE0F900FBE0F901F90F5
:1009500018951F920F920FB60F9211240BB60F929B
:100960002F933F934F935F936F937F938F939F93B7
:10097000AF93BF93EF93FF93E0914602F09147024C
:100980001995FF91EF91BF91AF919F918F917F91B9
:100990006F915F914F913F912F910F900BBE0F90F0
:1009A0000FBE0F901F9018951F920F920FB60F92C7
:1009B00011240BB60F922F933F934F935F936F9336
:1009C0007F938F939F93AF93BF93EF93FF93E091A8
:1009D0004802F09149021995FF91EF91BF91AF91B3
:1009E0009F918F917F916F915F914F913F912F9147
:1009F0000F900BBE0F900FBE0F901F9018951F9277
:100A00000F920FB60F9211242F933F938F939F93C2
:100A1000AF93BF938091770290917802A091790271
:100A2000B0917A023091760223E0230F2D3720F423
:100A30000196A11DB11D05C026E8230F0296A11D38
:100A4000B11D209376028093770290937802A09351
:100A50007902B0937A0280917B0290917C02A091FE
:100A60007D02B0917E020196A11DB11D80937B0293
:100A700090937C02A0937D02B0937E02BF91AF91D0
:100A80009F918F913F912F910F900FBE0F901F90CC
:100A90001895789484B5826084BD84B5816084BDE6
:100AA00085B5826085BD85B5816085BDEEE6F0E0E7
:100AB000808181608083E1E8F0E010828081826043
:100AC0008083808181608083E0E8F0E080818160C4
:100AD0008083E1EBF0E0808184608083E0EBF0E0F4
:100AE000808181608083E1E9F0E0808182608083A1
:100AF000808181608083E0E9F0E080818160808393
:100B0000E1EAF0E08081826080838081816080837F
:100B1000E0EAF0E0808181608083E1E2F1E08081C1
:100B200082608083808181608083E0E2F1E0808167
:100B300081608083EAE7F0E0808184608083808147
:100B400082608083808181608083808180688083EF
:100B50001092C1000895863308F0865390917B006F
:100B6000282F2870977F922B90937B00877020917D
:100B70004A0290E4299F90011124822B80937C00EB
:100B800080917A00806480937A0080917A0086FD5B
:100B9000FCCF809178002091790090E0922B08950D
:100BA0001F93CF93DF93182FEB0161E016D12097AD
:100BB00011F460E004C0CF3FD10531F461E0812F32
:100BC000DF91CF911F9145C1E12FF0E0E45DFE4F31
:100BD000E4914E2F50E0FA013197E231F10508F02F
:100BE0009DC08827EE58FF4F8F4F0C94B70E84B5E9
:100BF000806884BDC7BD97C084B5806284BDC8BD10
:100C000092C080918000806880938000D09389009A
:100C1000C093880088C080918000806280938000AB
:100C2000D0938B00C0938A007EC080918000886042
:100C300080938000D0938D00C0938C0074C080910D
:100C4000B00080688093B000C093B3006CC0809106
:100C5000B00080628093B000C093B40064C0809103
:100C60009000806880939000D0939900C093980082
:100C70005AC080919000806280939000D0939B0036
:100C8000C0939A0050C0809190008860809390003B
:100C9000D0939D00C0939C0046C08091A0008068C6
:100CA0008093A0008091A0008F7B8093A000D093C0
:100CB000A900C093A80037C08091A00080628093F3
:100CC000A000D093AB00C093AA002DC08091A000DB
:100CD00088608093A000D093AD00C093AC0023C087
:100CE00080912001806880932001D0932901C093D6
:100CF000280119C080912001806280932001D09347
:100D00002B01C0932A010FC080912001886080933D
:100D10002001D0932D01C0932C0105C0C038D1050E
:100D20000CF04CCF46CFDF91CF911F91089590E00A
:100D3000FC013197E231F10508F04EC08827EC57ED
:100D4000FF4F8F4F0C94B70E809180008F7703C0B8
:100D5000809180008F7D8093800008958091800035
:100D6000877FF9CF84B58F7702C084B58F7D84BD2E
:100D700008958091B0008F7703C08091B0008F7D7F
:100D80008093B0000895809190008F7707C0809184
:100D900090008F7D03C080919000877F80939000AA
:100DA00008958091A0008F7707C08091A0008F7D6B
:100DB00003C08091A000877F8093A0000895809158
:100DC00020018F7707C0809120018F7D03C0809123
:100DD0002001877F809320010895CF93DF9390E0D7
:100DE000FC01EE58FE4F2491FC01E854FE4F849123
:100DF000882361F190E0880F991FFC01E85EFD4FA8
:100E0000C591D491FC01E250FE4FA591B4916111BE
:100E100009C09FB7F8948881209582238883EC913C
:100E20002E230BC0623061F49FB7F8943881822F73
:100E3000809583238883EC912E2B2C939FBF06C033
:100E40008FB7F894E8812E2B28838FBFDF91CF9145
:100E500008951F93CF93DF93282F30E0F901E45DCD
:100E6000FE4F8491F901EE58FE4FD491F901E854F8
:100E7000FE4FC491CC23C1F0162F811158DFEC2F07
:100E8000F0E0EE0FFF1FE250FE4FA591B4918FB737
:100E9000F894111105C09C91ED2FE095E92302C053
:100EA000EC91ED2BEC938FBFDF91CF911F910895C3
:100EB000FC01918D228D892F90E0805C9F4F821BD9
:100EC00091098F7399270895FC01918D828D981750
:100ED00031F0828DE80FF11D858D90E008958FEF40
:100EE0009FEF0895FC01918D828D981761F0828D9E
:100EF000DF01A80FB11D5D968C91928D9F5F9F734E
:100F0000928F90E008958FEF9FEF0895FC01848DFC
:100F1000DF01A80FB11DA35ABF4F2C91848D90E023
:100F200001968F739927848FA689B7892C93A089FE
:100F3000B1898C9180648C93938D848D981306C0B5
:100F40000288F389E02D80818F7D80830895CF937F
:100F5000DF93EC01888D8823C1F0EA89FB898081C9
:100F600085FD05C0A889B9898C9186FD0EC00FB694
:100F700007FCF5CF808185FFF2CFA889B9898C91D4
:100F800085FFEDCFCE01C2DFE8CFDF91CF9108958D
:100F9000EF92FF920F931F93CF93DF93EC0181E0C9
:100FA000888F9B8D8C8D981305C0E889F989808185
:100FB00085FD23C0F62E0B8D10E00F5F1F4F0F73C2
:100FC0001127E02E8C8DE8120BC00FB607FCFACF6C
:100FD000E889F989808185FFF5CFCE0197DFF2CFCF
:100FE0008B8DFE01E80FF11DE35AFF4FF0820B8F4E
:100FF000EA89FB898081806207C0EE89FF8960836E
:10100000E889F98980818064808381E090E0DF91C4
:10101000CF911F910F91FF90EF900895CF92DF92A3
:10102000EF92FF921F93CF93DF93EC016A017B0154
:10103000122FE889F98982E080834115514E6105BC
:101040007105A9F060E079E08DE390E0A7019601D9
:101050006CD6DA01C9010197A109B109B695A79526
:1010600097958795AC01411580E15807A0F0E88974
:10107000F989108260E874E88EE190E0A70196019A
:1010800054D6BA01A90141505109610971097695F7
:10109000679557954795EC85FD855083EE85FF85CF
:1010A0004083188EEC89FD891083EA89FB89808151
:1010B00080618083EA89FB89808188608083EA89F6
:1010C000FB89808180688083EA89FB8980818F7DAC
:1010D0008083DF91CF911F91FF90EF90DF90CF90B1
:1010E00008951F920F920FB60F9211240BB60F9214
:1010F0002F938F939F93EF93FF93E0918F02F09143
:1011000090028081E0919502F091960282FD12C0DA
:101110009081809198028F5F8F732091990282173E
:1011200051F0E0919802F0E0E158FD4F958F8093E7
:10113000980201C08081FF91EF919F918F912F9133
:101140000F900BBE0F900FBE0F901F9018951F921F
:101150000F920FB60F9211240BB60F922F933F935D
:101160004F935F936F937F938F939F93AF93BF93AF
:10117000EF93FF938FE792E0C9DEFF91EF91BF916C
:10118000AF919F918F917F916F915F914F913F911F
:101190002F910F900BBE0F900FBE0F901F901895C0
:1011A000EFE7F2E01382128288EE93E0A0E0B0E075
:1011B00084839583A683B78384E692E091838083BA
:1011C00085EC90E09587848784EC90E0978786870C
:1011D00080EC90E0918B808B81EC90E0938B828B04
:1011E00082EC90E0958B848B86EC90E0978B868BDD
:1011F000118E128E138E148E08951F920F920FB6B9
:101200000F9211240BB60F922F938F939F93EF930E
:10121000FF93E0912C03F0912D038081E091320344
:10122000F091330382FD12C09081809135038F5F6E
:101230008F7320913603821751F0E0913503F0E06F
:10124000E45EFC4F958F8093350301C08081FF9150
:10125000EF919F918F912F910F900BBE0F900FBE2A
:101260000F901F9018951F920F920FB60F92112496
:101270000BB60F922F933F934F935F936F937F9390
:101280008F939F93AF93BF93EF93FF938CE193E082
:101290003DDEFF91EF91BF91AF919F918F917F9133
:1012A0006F915F914F913F912F910F900BBE0F90D7
:1012B0000FBE0F901F901895ECE1F3E0138212829D
:1012C00088EE93E0A0E0B0E084839583A683B783A3
:1012D00084E692E0918380838DEC90E0958784870B
:1012E0008CEC90E09787868788EC90E0918B808BE0
:1012F00089EC90E0938B828B8AEC90E0958B848BC9
:101300008EEC90E0978B868B118E128E138E148E3E
:1013100008951F920F920FB60F9211240BB60F92E1
:101320002F938F939F93EF93FF93E091C903F091D5
:10133000CA038081E091CF03F091D00382FD12C0F7
:1013400090818091D2038F5F8F732091D303821796
:1013500051F0E091D203F0E0E754FC4F958F809379
:10136000D20301C08081FF91EF919F918F912F91C6
:101370000F900BBE0F900FBE0F901F9018951F92ED
:101380000F920FB60F9211240BB60F922F933F932B
:101390004F935F936F937F938F939F93AF93BF937D
:1013A000EF93FF9389EB93E0B1DDFF91EF91BF9154
:1013B000AF919F918F917F916F915F914F913F91ED
:1013C0002F910F900BBE0F900FBE0F901F9018958E
:1013D000E9EBF3E01382128288EE93E0A0E0B0E044
:1013E00084839583A683B78384E692E09183808388
:1013F00085ED90E09587848784ED90E097878687D8
:1014000080ED90E0918B808B81ED90E0938B828BCF
:1014100082ED90E0958B848B86ED90E0978B868BA8
:10142000118E128E138E148E08951F920F920FB686
:101430000F9211240BB60F922F938F939F93EF93DC
:10144000FF93E0916604F09167048081E0916C0461
:10145000F0916D0482FD12C0908180916F048F5FC6
:101460008F7320917004821751F0E0916F04F0E0C7
:10147000EA5AFB4F958F80936F0401C08081FF91E2
:10148000EF919F918F912F910F900BBE0F900FBEF8
:101490000F901F9018951F920F920FB60F92112464
:1014A0000BB60F922F933F934F935F936F937F935E
:1014B0008F939F93AF93BF93EF93FF9386E594E051
:1014C00025DDFF91EF91BF91AF919F918F917F911A
:1014D0006F915F914F913F912F910F900BBE0F90A5
:1014E0000FBE0F901F901895E6E5F4E0138212826C
:1014F00088EE93E0A0E0B0E084839583A683B78371
:1015000084E692E09183808385E391E095878487E8
:1015100084E391E09787868780E391E0918B808BCD
:1015200081E391E0938B828B82E391E0958B848BB6
:1015300086E391E0978B868B118E128E138E148E1C
:1015400008958F929F92AF92BF92CF92DF92EF92C7
:10155000FF920F931F93CF93DF937C018B016C015C
:1015600082E0C80ED11C4701E5E08E0E911CC0E060
:10157000D0E0F60161916F014AE050E0C801C5D0AA
:101580005C016EE2C80167D08A0D9B1DC80FD91F90
:10159000C814D90471F74AE050E0F7016581C80129
:1015A000B4D08C0F9D1FDF91CF911F910F91FF90B1
:1015B000EF90DF90CF90BF90AF909F908F90089565
:1015C000E3EFF4E084E792E0918380831282138258
:1015D000148215820895CF92DF92EF92FF920F93BB
:1015E0001F93CF93DF936C017A018B01C0E0D0E0B1
:1015F000CE15DF0589F0D8016D918D01D601ED91F1
:10160000FC910190F081E02DC6011995892B11F410
:101610007E0102C02196ECCFC701DF91CF911F91CF
:101620000F91FF90EF90DF90CF90089561157105B5
:1016300079F0FB0101900020E9F73197AF01461BDB
:10164000570BDC01ED91FC910280F381E02D1994A0
:1016500080E090E00895DC01ED91FC910190F08133
:10166000E02D19944F925F926F927F92EF92FF92CA
:101670000F931F93CF93DF93CDB7DEB7A1970FB62C
:10168000F894DEBF0FBECDBF7C01FA01CB0119A2D9
:10169000223008F42AE08E010F5D1F4F422E512C9C
:1016A000612C712CBF01A30192013FD3F901CA0142
:1016B000015011096A3014F4605D01C0695CD80101
:1016C0006C93232B242B252B69F7B801C701AEDFC0
:1016D000A1960FB6F894DEBF0FBECDBFDF91CF91BC
:1016E0001F910F91FF90EF907F906F905F904F90C0
:1016F00008952115310541F4DC01ED91FC91019033
:10170000F081E02D642F1994ADCF9A01462F50E05F
:1017100060E070E0EECF8230A9F028F4882349F031
:10172000813051F00895843021F1E8F0853039F1AD
:10173000089510926E00089580916F008D7F8093C0
:101740006F000895809170008D7F8093700081E01C
:101750008093B0008091B100887F84608093B10055
:101760001092B3000895809171008D7F8093710075
:101770000895809172008D7F80937200089580910A
:1017800073008D7F809373000895CF93C82F80914D
:101790004B028C1307C0E2E3F2E0E4918FEF8093F9
:1017A0004B0201C0EFEF8E2FB6DF60E08C2FCF91A0
:1017B00050CB1F920F920FB60F9211240BB60F92BF
:1017C0002F933F934F935F936F937F938F939F9349
:1017D000AF93BF93EF93FF938091FC049091FD042E
:1017E000A091FE04B091FF04892B8A2B8B2B51F121
:1017F0008091F904E091FA04F091FB04908189272B
:1018000080838091FC049091FD04A091FE04B0912E
:10181000FF04181619061A061B06BCF48091FC0476
:101820009091FD04A091FE04B091FF040197A109DD
:10183000B1098093FC049093FD04A093FE04B0933F
:10184000FF0403C080914B02A0DFFF91EF91BF9195
:10185000AF919F918F917F916F915F914F913F9148
:101860002F910F900BBE0F900FBE0F901F901895E9
:1018700040E855E260E070E080E090E000C0813038
:10188000910571F01CF4892B39F00895823091058F
:1018900059F0039769F0089526E08FE792E00BC0B6
:1018A00026E08CE193E007C026E089EB93E003C0DB
:1018B00026E086E594E0B2CBDC01CB0186339105CE
:1018C000A105B10518F4C696A11DB11D60E085CA39
:1018D0001F920F920FB60F9211240BB60F922F93F7
:1018E0003F934F935F936F937F938F939F93AF93A8
:1018F000BF93EF93FF938BEC93EF9093250180932D
:10190000240134D0FF91EF91BF91AF919F918F91BE
:101910007F916F915F914F913F912F910F900BBEEF
:101920000F900FBE0F901F9018958BEC93EF909334
:10193000250180932401A3E7B0E08C918E7F8C93E6
:10194000E0E2F1E080818C7F8083E1E2F1E0808160
:10195000877E808380818460808380818C7F808388
:101960008C9181608C93089581E00895CF93DF93EB
:1019700000D0CDB7DEB78091030591E0980F90932A
:101980000305882349F021E030E0309307052093D8
:101990000605809303053CC0CE0101960E945D01BF
:1019A00078940E946501F89480910305815080939A
:1019B00003058B81882389F08091020591E0980FBF
:1019C00090930205882349F021E030E03093070529
:1019D00020930605809302051BC080910205882391
:1019E000B9F080910405811113C0809105058F5FC6
:1019F0008093050578940E94B802F89480910205BE
:101A000081508093020580910505815080930505E2
:101A10000F900F900F90DF91CF9108950F931F9328
:101A2000CF93DF931F92CDB7DEB781E0898331D8A2
:101A30001FDF00915E0210915F02F8011182108297
:101A40000E94C20272DF81E0F80120813181232BE4
:101A500009F080E08983789478948981882389F0DB
:101A600081E0F80120813181232B09F080E0898316
:101A70008981882311F078DF02C080E090E08983BB
:101A8000ECCF0E944503F89480E090E00F90DF9146
:101A9000CF911F910F9108956CD008F481E00895C3
:101AA000BCD088F09F5790F0B92F9927B751A0F07C
:101AB000D1F0660F771F881F991F1AF0BA95C9F7E2
:101AC00012C0B13081F0C3D0B1E00895C0C0672F1B
:101AD000782F8827B85F39F0B93FCCF38695779592
:101AE0006795B395D9F73EF490958095709561957B
:101AF0007F4F8F4F9F4F0895E89409C097FB3EF4A6
:101B000090958095709561957F4F8F4F9F4F99234A
:101B1000A9F0F92F96E9BB279395F69587957795C8
:101B20006795B795F111F8CFFAF4BB0F11F460FF88
:101B30001BC06F5F7F4F8F4F9F4F16C0882311F0E0
:101B400096E911C0772321F09EE8872F762F05C0F4
:101B5000662371F096E8862F70E060E02AF09A958F
:101B6000660F771F881FDAF7880F9695879597F984
:101B70000895990F0008550FAA0BE0E8FEEF16161E
:101B80001706E807F907C0F012161306E407F50771
:101B900098F0621B730B840B950B39F40A2661F0E5
:101BA000232B242B252B21F408950A2609F4A14088
:101BB000A6958FEF811D811D089597F99F6780E895
:101BC00070E060E008959FEF80EC089500240A948F
:101BD0001616170618060906089500240A94121608
:101BE0001306140605060895092E0394000C11F43B
:101BF000882352F0BB0F40F4BF2B11F460FF04C0E8
:101C00006F5F7F4F8F4F9F4F089557FD9058440F40
:101C1000551F59F05F3F71F04795880F97FB991F4B
:101C200061F09F3F79F08795089512161306140608
:101C3000551FF2CF4695F1DF08C016161706180695
:101C4000991FF1CF86957105610508940895E89470
:101C5000BB2766277727CB0197F908958ADF08F419
:101C60008FEF08950BD0C0CFB1DF28F0B6DF18F0AA
:101C7000952309F0A2CFA7CF1124EACFC6DFA0F3A6
:101C8000959FD1F3950F50E0551F629FF001729F11
:101C9000BB27F00DB11D639FAA27F00DB11DAA1F30
:101CA000649F6627B00DA11D661F829F2227B00D7D
:101CB000A11D621F739FB00DA11D621F839FA00D08
:101CC000611D221F749F3327A00D611D231F849F58
:101CD000600D211D822F762F6A2F11249F575040AF
:101CE0008AF0E1F088234AF0EE0FFF1FBB1F661F4A
:101CF000771F881F91505040A9F79E3F510570F003
:101D00005CCFA6CF5F3FECF3983EDCF386957795EA
:101D10006795B795F795E7959F5FC1F7FE2B880FFD
:101D2000911D9695879597F90895A1E21A2EAA1B01
:101D3000BB1BFD010DC0AA1FBB1FEE1FFF1FA2177B
:101D4000B307E407F50720F0A21BB30BE40BF50B78
:101D5000661F771F881F991F1A9469F76095709501
:101D6000809590959B01AC01BD01CF010895EE0FC8
:101D7000FF1F881F8BBF0790F691E02D1994F894F0
:021D8000FFCF93
:101D82000000BC0580000100000009000000040002
:101D920000000000803F000000000000803F0000C3
:101DA200000000000C43000000400000F041000071
:101DB20000000000000001000000A603A603A60325
:101DC200A603A603A603A603A60301FF4669786538
:101DD20064537465704469736372657465000805C1
:101DE20000000000C807EB0A580772076407A7073C
:061DF20000000000A10A40
:00000001FF
