:10000000D4C100000C948A190C94B5190C94E01911
:100010000C940B1A0C94361A0C94611A0C948C1ACA
:100020000C94B71AF3C10000F1C10000EFC1000049
:10003000EDC100000C941D22E9C10000E7C10000E1
:10004000E5C10000E3C10000E1C10000DFC1000024
:10005000DDC10000DBC10000D9C100000C94E21A30
:10006000D5C100000C94B41E0C94EA1ECFC1000050
:10007000CDC10000CBC10000C9C10000C7C1000054
:10008000C5C10000C3C10000C1C10000BFC1000064
:100090000C94401F0C94761FB9C10000B7C100003A
:1000A000B5C10000B3C10000B1C10000AFC1000084
:1000B000ADC10000ABC10000A9C10000A7C1000094
:1000C000A5C10000A3C100000C94AC220C94CC1F6D
:1000D0000C9402209BC100000C9458200C948E209C
:1000E00095C10000381C3D1C421C4C1C561CCF1CEA
:1000F000601C681C701C7A1C841C8E1C9D1CA71C18
:10010000CF1CB11CBB1CC51CF31CF61CE51CE91C58
:10011000EF1C2D1DFA1CFE1C041D081D0C1D121DBC
:10012000161D1A1D2D1D201D241D281DB62A762CD6
:10013000E02CE32CBA2BED2B752A962A592ABD2CDC
:10014000AC2CB92CE32CE32CE32C442A084AD73BF3
:100150003BCE016E84BCBFFDC12F3D6C74319ABD96
:1001600056833DDA3D00C77F11BED9E4BB4C3E91BA
:100170006BAAAABE000000803F05A84CCDB2D44EA9
:10018000B93836A9020C50B9918688083CA6AAAAAB
:100190002ABE000000803F0000000A0B02090C0D7F
:1001A0000E0807030401000000000000000000002A
:1001B000000000000000000000000000000000003F
:1001C00000000000121110000000000000000000FC
:1001D000000000000000000000000000000001021C
:1001E0001020200808102040102040800201020149
:1001F0000804020101020408102040808040201001
:100200000804020180040201804020100804020159
:1002100008040201010204081020408001020408C1
:10022000102040800505050507050808080802029A
:1002300002020A0A08080404040401010101010180
:1002400001010303030303030303040707070C0C63
:100250000C0C0C0C0C0C020202020606060606062A
:1002600006060B0B0B0B0B0B0B0B000022002500E3
:1002700028002B002E00310034000201000005018F
:1002800008010B0100002100240027002A002D0096
:100290003000330001010000040107010A010200DF
:1002A0001D3A2774694E53E8F5D2CF9C81A6BBCD89
:1002B000D0F7EAB9A4839E25381F02514C6B76878C
:1002C0009ABDA0F3EEC9D46F7255481B06213C4A73
:1002D00057706D3E230419A2BF9885D6CBECF1135D
:1002E0000E2934677A5D40FBE6C1DC8F92B5A8DE4B
:1002F000C3E4F9AAB7908D362B0C11425F78659450
:1003000089AEB3E0FDDAC77C61465B0815322F5930
:1003100044637E2D30170AB1AC8B96C5D8FFE22618
:100320003B1C01524F6875CED3F4E9BAA7809DEB10
:10033000F6D1CC9F82A5B8031E3924776A4D50A10F
:10034000BC9B86D5C8EFF24954736E3D20071A6CEA
:1003500071564B1805223F8499BEA3F0EDCAD735DC
:10036000280F12415C7B66DDC0E7FAA9B4938EF8D2
:10037000E5C2DF8C91B6AB100D2A3764795E43B2CB
:10038000AF8895C6DBFCE15A47607D2E3314097FA8
:100390006245580B16312C978AADB0E3FED9C400E4
:1003A000131F9F1F2B20B720232111241FBECFEF27
:1003B000D1E2DEBFCDBF00E00CBF1CE0A0E0B2E0A8
:1003C000E0E5F9E600E00BBF02C007900D92A23312
:1003D000B107D9F720E1A2E3BCE001C01D92A73C20
:1003E000B207E1F711E0C5EDD1E000E006C02197CA
:1003F0000109802FFE010E942A33C03DD10780E011
:100400000807A9F70E946D2E0C94A634F9CD662337
:1004100011F061E001C060E00C942E1D662311F024
:1004200061E001C060E00C946A1D2F923F924F92F0
:100430005F926F927F928F929F92AF92BF92CF9274
:10044000DF92EF92FF920F931F93CF93DF9300D031
:1004500000D0CDB7DEB74B015C015E834D8319013F
:1004600067017801DA014D905D906D907C90A30159
:1004700092010E94D82F1816FCF0A3019201C50129
:10048000B4010E94FE2E6B017C01A3019201ED815B
:10049000FE8164817581868197810E94FE2E9B0179
:1004A000AC01C701B6010E94DF2F6B017C011982EC
:1004B0001A821B821C8299C08601000F111F000F37
:1004C000111F2D813E81020F131FD8014D905D90A9
:1004D0006D907C90A3019201C501B4010E94D82FB8
:1004E00087FF5DC02601370176946794579447943F
:1004F00019821A821B821C82D701C60129813A8186
:100500004B815C81821B930BA40BB50B0297A10559
:10051000B10538F1F201EE0FFF1FEE0FFF1F2D8125
:100520003E81E20FF31F2081318142815381C50159
:10053000B4010E94D82F87FD05C049825A826B8280
:100540007C8202C07301620149805A806B807C808A
:100550004C0C5D1C6E1C7F1C7694679457944794DA
:10056000CBCFC901880F991F880F991F0D811E815C
:10057000080F191FD801CD90DD90ED90FC90A701D8
:100580009601C501B4010E94FE2E4B015C01A7013A
:100590009601F80164817581868197811CC0A7014D
:1005A0009601215031094109510929833A834B832E
:1005B0005C83F8013497C080D180E280F380A7018A
:1005C0009601C501B4010E94FE2E4B015C01A701FA
:1005D0009601C301B2010E94FE2E9B01AC01C50130
:1005E000B4010E94DF2F6B017C0189819A81019601
:1005F000880F991F880F991FD101A80FB91FFD01FE
:10060000349780809180A280B380A50194016D9180
:100610007D918D919C910E94FE2EA70196010E94D2
:100620002F32A50194010E94FF2E26960FB6F89452
:10063000DEBF0FBECDBFDF91CF911F910F91FF9015
:10064000EF90DF90CF90BF90AF909F908F907F9072
:100650006F905F904F903F902F900895CF92DF92D0
:10066000EF92FF926B017C019F7720E030E040E841
:1006700059E50E94D82F87FF3AC020E030E040E0E3
:100680005FE3C701B6010E94243287FD0EC020E05F
:1006900030E040E05FE3C701B6010E94FF2EFF900B
:1006A000EF90DF90CF900C94B03020E030E040E04D
:1006B0005FEBC701B6010E942432181654F420E003
:1006C00030E0A901C701B6010E942F326B017C0105
:1006D0000EC020E030E040E05FE3C701B6010E94B9
:1006E000FE2EFF90EF90DF90CF900C94C52FC701A6
:1006F000B601FF90EF90DF90CF9008954F925F92F8
:100700006F927F928F929F92AF92BF92CF92DF9221
:10071000EF92FF92CF93DF9300D01F92CDB7DEB759
:100720002B013C0169017A010E94DA0B882349F010
:100730006091B7107091B8108091B9109091BA1073
:100740007DC0C301B2010E94B10B8111F1CFC7017D
:10075000B6010E94DA0B8111EBCFC701B6010E94EE
:10076000B10B8111E5CF20E030E0A901C701B6014E
:100770000E94D82F87FF07C0C701B6010E94C52F6E
:100780004B015C010FC0C701B6010E94B0304B01A4
:100790005C0120E030E0A901C701B6010E94D82F1A
:1007A000882389F1A5019401C701B6010E94D82FC1
:1007B000882349F1A7019601C301B2010E94DF2FEE
:1007C0004B015C014BDF9B01AC01C501B4010E94F0
:1007D000FE2E9B01AC015F7729833A834B835C83B8
:1007E000C501B4019F7720E030E040E054E30E946F
:1007F0002F329B01AC0169817A818B819C810E949F
:10080000D82F1816C4F4A7019601C301B2010F90A6
:100810000F900F900F90DF91CF91FF90EF90DF90AE
:10082000CF90BF90AF909F908F907F906F905F9090
:100830004F900C94CA3060E070E0CB010F900F90A5
:100840000F900F90DF91CF91FF90EF90DF90CF90BE
:10085000BF90AF909F908F907F906F905F904F90E0
:1008600008958F929F92AF92BF92CF92DF92EF92B4
:10087000FF920F931F93CF93DF9300D01F92CDB7BA
:10088000DEB76B017C0149015A0194D7882349F0F6
:100890006091B7107091B8108091B9109091BA1012
:1008A00080C0C501B40186D78111F2CFC701B6015E
:1008B00058D78823C1F1C501B40153D7882399F1D2
:1008C00020E030E0A901C701B6010E9424321816C9
:1008D0001CF00FEF1FEF02C001E010E020E030E05D
:1008E000A901C501B4010E94243218161CF06FEF53
:1008F0007FEF02C061E070E0072E000C880B990BBF
:100900000E9475309B01AC01B801110F880B990B47
:1009100029833A834B835C830E94753029813A8115
:100920004B815C8123C020E030E0A901C501B40106
:100930000E94D82F811116C020E030E0A901C70124
:10094000B6010E94243218161CF120E030E0A90103
:10095000C701B6010E94D82F87FD1FC060E070E07C
:10096000CB011FC0A5019401C701B6010F900F90E4
:100970000F900F90DF91CF911F910F91FF90EF900B
:10098000DF90CF90BF90AF909F908F900C94722F7C
:100990006BED7FE089EC9FE304C06BED7FE089ECB9
:1009A0009FEB0F900F900F900F90DF91CF911F91C1
:1009B0000F91FF90EF90DF90CF90BF90AF909F90FE
:1009C0008F9008954F925F926F927F928F929F9235
:1009D000AF92BF92CF92DF92EF92FF920F931F934D
:1009E000CF93DF93CDB7DEB760970FB6F894DEBF35
:1009F0000FBECDBF2091A6063091A7064091A80654
:100A00005091A906E091A110F091A210608171812E
:100A10008281938173DE1DE7E12EF12C00E010E06E
:100A20002EE832E04AEA56E000DD6093D10F709381
:100A3000D20F8093D30F9093D40F8091FE0A0E941F
:100A4000EC1BBC0180E090E00E9473309B01AC0184
:100A50006091A2087091A3088091A4089091A508C4
:100A60000E94FE2E2091A6083091A7084091A80868
:100A70005091A9080E942F329B01AC016093D50FC1
:100A80007093D60F8093D70F9093D80F6091D10FAA
:100A90007091D20F8091D30F9091D40F0E94FE2EAF
:100AA00069837A838B839C8301E02091AA0830912B
:100AB000AB084091AC085091AD080E94D82F87FD3B
:100AC00003C000E060E012C011E020E030E0A901C6
:100AD0006091AE087091AF088091B0089091B10814
:100AE0000E94D82F811101C010E0612F82E096DCB6
:100AF00011E020E030E0A9016091B2087091B308E4
:100B00008091B4089091B5080E94D82F811101C03E
:100B100010E0602F612783E081DC8091020B0E944E
:100B2000EC1BBC0180E090E00E9473309B01AC01A3
:100B30006091B20A7091B30A8091B40A9091B50A9B
:100B40000E94FE2E2091B60A3091B70A4091B80A51
:100B50005091B90A0E94FE2E2091BA0A3091BB0A28
:100B60004091BC0A5091BD0A0E942F326093D90F68
:100B70007093DA0F8093DB0F9093DC0F2091B6080F
:100B80003091B7084091B8085091B908E091A11090
:100B9000F091A2106081718182819381AFDD1DE7A8
:100BA000E12EF12C00E010E026E834E04AEB58E0BA
:100BB0003CDC2091D90F3091DA0F4091DB0F50913E
:100BC000DC0F0E94FE2E6D837E838F839887209199
:100BD000BE0A3091BF0A4091C00A5091C10A0E94DA
:100BE000D82F082F001F0027001F11E020E030E061
:100BF000A9016091C20A7091C30A8091C40A9091C0
:100C0000C50A0E94D82F811101C010E0602F612712
:100C100087E004DC002399F011E020E030E0A90136
:100C20006091C60A7091C70A8091C80A9091C90A5A
:100C30000E94D82F811101C010E0612F01C060E037
:100C400086E0ECDB20917E0630917F0640918006A5
:100C50005091810669817A818B819C810E942F321B
:100C60002091A90F3091AA0F4091AB0F5091AC0F7A
:100C70000E94FE2E20918E0630918F0640919006A4
:100C8000509191060E942F326B017C016093DD0F21
:100C90007093DE0F8093DF0F9093E00F2091960604
:100CA00030919706409198065091990669817A8112
:100CB0008B819C810E942F322091A50F3091A60F2D
:100CC0004091A70F5091A80F0E94FF2EA7019601F7
:100CD0000E94FF2E6B017C01E894F7F88090DA0AFD
:100CE0009090DB0AA090DC0AB090DD0A9401A50187
:100CF000C701B6010E942432181684F08090DE0AE3
:100D00009090DF0AA090E00AB090E10A9401A5015A
:100D1000C701B6010E94D82F87FF02C06401750188
:100D200020E030E040E853E4C701B6010E94D82F2C
:100D300087FF0EC020E030E0A901C701B6010E9484
:100D4000243287FD07C0C701B6010E94473003C0A7
:100D50006FEF01C060E070E080919E060E94111C60
:100D60002091820630918306409184065091850639
:100D70006D817E818F8198850E942F322091B10FE5
:100D80003091B20F4091B30F5091B40F0E94FE2EDC
:100D900020919206309193064091940650919506C9
:100DA0000E942F326B017C016093E10F7093E20F80
:100DB0008093E30F9093E40F20919A0630919B0665
:100DC00040919C0650919D066D817E818F81988512
:100DD0000E942F322091AD0F3091AE0F4091AF0F96
:100DE0005091B00F0E94FF2EA70196010E94FF2E86
:100DF0006B017C0120E030E0A9010E94243218162A
:100E00005CF423E333E343E150E4C701B6010E94FD
:100E10002F326B017C0104C0F7FAF094F7F8F094DC
:100E20008090F20A9090F30AA090F40AB090F50A2C
:100E30009401A501C701B6010E942432181684F05E
:100E40008090F60A9090F70AA090F80AB090F90AFC
:100E50009401A501C701B6010E94D82F87FF02C0E7
:100E60006401750120E030E040E853E4C701B601B9
:100E70000E94D82F87FF0EC020E030E0A901C701F3
:100E8000B6010E94243287FD07C0C701B6010E9447
:100E9000473003C06FEF01C060E070E08091A206B0
:100EA0000E94111C2091D90F3091DA0F4091DB0F75
:100EB0005091DC0F6091FA0A7091FB0A8091FC0A54
:100EC0009091FD0A0E942F3269877A878B879C87D1
:100ED0004090D50F5090D60F6090D70F7090D80FDC
:100EE000A301920160E070E086E993E40E94FE2E87
:100EF0006B017C0169857A858B859C850E94DC2F3E
:100F00006D877E878F87988BA7019601C701B601F1
:100F10000E942F3220E030E24DEF56E40E94FF2E77
:100F20004B015C01A7019601C701B6010E94FF2E8B
:100F300020E030E044E353E40E942F322D853E85CB
:100F40004F8558890E942F329B01AC01C501B40125
:100F50000E94FE2E0E949C326B017C0120E030E05A
:100F600042E153E4C301B2010E94D82F87FF2BC096
:100F700069857A858B859C850E94923220E030E0DD
:100F800044E353E40E942F324B015C01A701960118
:100F9000C701B6010E942F322B013C01A50194012B
:100FA000C501B4010E942F329B01AC01C301B20103
:100FB0000E94FE2E0E949C324B015C01B7FAB09455
:100FC000B7F8B09426C069857A858B859C850E9488
:100FD000923220E030E044E353E40E942F324B0190
:100FE0005C01A7019601C701B6010E942F322B01B7
:100FF0003C01A5019401C501B4010E942F329B015F
:10100000AC01C301B2010E94FE2E0E949C324B0132
:101010005C0169857A858B859C850E94923220E0EF
:1010200030E044E353E40E942F32A501940119DC1F
:101030004B015C010E94DC2F9B01AC01C701B60192
:101040000E942F326093E50F7093E60F8093E70FB5
:101050009093E80FC501B4010E9492329B01AC014C
:10106000C701B6010E942F326093E90F7093EA0F17
:101070008093EB0F9093EC0F2091860630918706BA
:10108000409188065091890669817A818B819C8183
:101090000E942F324B015C016093ED0F7093EE0FB5
:1010A0008093EF0F9093F00F20918A0630918B067A
:1010B00040918C0650918D066D817E818F8198853F
:1010C0000E942F326B017C016093F10F7093F20F3D
:1010D0008093F30F9093F40F2091CA0A3091CB0ABA
:1010E0004091CC0A5091CD0AC501B4010E942F3223
:1010F0009B01AC016091A50F7091A60F8091A70F85
:101100009091A80F0E94FF2E6093A50F7093A60FD9
:101110008093A70F9093A80F2091DD0F3091DE0FE1
:101120004091DF0F5091E00F6091D20A7091D30A85
:101130008091D40A9091D50A0E942F329B01AC0174
:101140006091A90F7091AA0F8091AB0F9091AC0F95
:101150000E94FF2E6093A90F7093AA0F8093AB0F8C
:101160009093AC0F2091E20A3091E30A4091E40A97
:101170005091E50AC701B6010E942F329B01AC01D4
:101180006091AD0F7091AE0F8091AF0F9091B00F45
:101190000E94FF2E6093AD0F7093AE0F8093AF0F40
:1011A0009093B00F2091E10F3091E20F4091E30F47
:1011B0005091E40F6091EA0A7091EB0A8091EC0A79
:1011C0009091ED0A0E942F329B01AC016091B10F0A
:1011D0007091B20F8091B30F9091B40F0E94FF2EC7
:1011E0006093B10F7093B20F8093B30F9093B40FCD
:1011F00082E090E00E943619E091A110F091A210D7
:10120000408151816281738180E090E00E943219B7
:10121000609196107091971080919810909199100C
:101220000E9473302AE037ED43E25CE30E942F32E4
:10123000AB01BC0181E090E00E94321980909A10CD
:1012400090909B10A0909C10B0909D1020E030E0FA
:1012500040E85FEBC501B4010E94D82F6090A11057
:101260007090A210882319F1F301C080D180E28030
:10127000F380A7019601C501B4010E94FE2E4B0127
:101280005C0120E030E040E054E3C701B6010E9479
:101290002F329B01AC01C501B4010E942432181603
:1012A00034F08CE19BE09093FE0F8093FD0F8091D2
:1012B000A010882331F08CE19BE09093FE0F809387
:1012C000FD0F80918E1090918F10A0919010B09191
:1012D0009110BC01CD016F5F7F4F8F4F9F4F609387
:1012E0008E1070938F1080939010909391100E94A5
:1012F000733020919210309193104091941050913E
:1013000095100E942F32F30160837183828393834F
:101310008091961090919710A0919810B09199108B
:101320000196A11DB11D8093961090939710A093E4
:101330009810B093991060960FB6F894DEBF0FBE68
:10134000CDBFDF91CF911F910F91FF90EF90DF9074
:10135000CF90BF90AF909F908F907F906F905F9055
:101360004F900895CF92DF92EF92FF920F931F93C9
:10137000CF93DF9384E090E0BDD1EDEFFFE08EEA04
:10138000DF011D928A95E9F78EE990E197838683C4
:10139000C1EAD0E1D0933E10C0933D1002E910E1C4
:1013A000158B048BF0936810E0936710F583E4834A
:1013B00021E030E0DC012D933C9380E39BE09387B8
:1013C000828723EA30E13983288340E050E060E8F7
:1013D0007FEB40939A1050939B1060939C107093F6
:1013E0009D104AE057ED63E27CE3D8014D935D9395
:1013F0006D937C931397CCE7D0E18EEE9DE7ADEB38
:10140000B3EB88839983AA83BB8387E999EBABE22B
:10141000B8ED8093801090938110A0938210B093C8
:10142000831080E39CECA6E9B6E38093841090934C
:101430008510A0938610B09387108DE694E1A1E407
:10144000B8E98093881090938910A0938A10B09384
:101450008B10A6E5BCE0B383A283E4E4FCE0119624
:10146000FC93EE938EEC9BE0918380839383828345
:1014700095838483978386839187808793878287E8
:101480009587848797878687918B808B8CE890E1FE
:1014900015969C938E9314971396DC93CE93129784
:1014A00017963C932E9316972CE2E1EDFFE0DF01B7
:1014B000322F1D923A95E9F7C5EADFE0DE011D9271
:1014C0002A95E9F7E2E3FCE022E1DF011D922A958B
:1014D000E9F7DC01ED93FC938FE090E0918380834A
:1014E00080E792E09383828382E592E09583848310
:1014F0008EE292E0978386838AE092E091878087EC
:101500006091FE0A7091FF0A8091000B9091010B8F
:101510000E94A022C12CD12C7601C394C8A6D9A6C2
:10152000EAA6FBA661E082E00E940702CCA2DDA24F
:10153000EEA2FFA261E083E00E9407026091020B2D
:101540007091030B8091040B9091050B0E94A022D7
:10155000C8A2D9A2EAA2FBA261E087E00E9407022A
:10156000CC8EDD8EEE8EFF8E61E086E00E9407025B
:1015700061E080919E060E942E1D61E08091A2068E
:101580000E942E1D8091CE0A9091CF0AA091D00A80
:10159000B091D10A88839983AA83BB838091D60AAC
:1015A0009091D70AA091D80AB091D90A8C839D83D3
:1015B000AE83BF838091E60A9091E70AA091E80A82
:1015C000B091E90A88879987AA87BB878091EE0A3C
:1015D0009091EF0AA091F00AB091F10A8C879D8753
:1015E000AE87BF87DF91CF911F910F91FF90EF9052
:1015F000DF90CF9008958091CD0F9091CE0FA09164
:10160000CF0FB091D00F0197A105B10561F482E031
:1016100090E0A0E0B0E08093CD0F9093CE0FA09328
:10162000CF0FB093D00F8091C90F9091CA0FA091A6
:10163000CB0FB091CC0F0197A105B10561F482E009
:1016400090E0A0E0B0E08093C90F9093CA0FA09300
:10165000CB0FB093CC0F8091C50F9091C60FA09186
:10166000C70FB091C80F0197A105B10561F482E0E1
:1016700090E0A0E0B0E08093C50F9093C60FA093D8
:10168000C70FB093C80F8091C10F9091C20FA09166
:10169000C30FB091C40F0197A105B10561F482E0B9
:1016A00090E0A0E0B0E08093C10F9093C20FA093B0
:1016B000C30FB093C40F089560E070E080E89FE727
:1016C000089560E070E080E89FE7089560E070E0D2
:1016D00080E89FEF089560E070E080E89FEF089554
:1016E00060E070E080EC9FEF089560E070E080ECD7
:1016F0009FEF0895F5DF6093B7107093B810809353
:10170000B9109093BA10F1DF6093AB107093AC10E6
:101710008093AD109093AE10CFDF6093B3107093B1
:10172000B4108093B5109093B610CBDF6093AF10D8
:101730007093B0108093B1109093B210C7DF609394
:10174000BB107093BC108093BD109093BE10C3DF8C
:101750006093BF107093C0108093C1109093C2101B
:101760000895CF92DF92EF92FF92CF936B017C01AD
:101770002091B3103091B4104091B5105091B61033
:101780000E94D82FC1E0882371F02091BB103091C6
:10179000BC104091BD105091BE10C701B6010E940F
:1017A000D82F8111C0E08C2FCF91FF90EF90DF9068
:1017B000CF900895CF93C1E09B01AC010E94D82F38
:1017C000811101C0C0E08C2FCF910895EF92FF925C
:1017D0000F931F93CF93DF93DC01EA01F901149675
:1017E0008D919C91159712960D911C911397080F4E
:1017F000191F2881398118964D915C9119974217CC
:10180000530728F04D915C911197452B39F17801E0
:10181000E21AF30A18964D915C911997481B590BDF
:101820004E0D5F1D4617570794F1A901460F571F2C
:1018300040175107E0F0F182E082338322836E1972
:101840007F0975836483161617061CF4382F292F19
:1018500002C030E020E03683278313C018968D91B4
:101860009C911997821B930B8617970784F07183BD
:1018700060833383228315821482178216828881C3
:101880009981680F791F7983688380E001C081E0C6
:10189000DF91CF911F910F91FF90EF900895CF921C
:1018A000DF92EF92FF92CF93DF936B017C0184E490
:1018B0008C9DE0018D9DD00D1124CE59D34F8AA966
:1018C0009BA9009721F00E94F5331BAA1AAA84E471
:1018D0008C9DF0018D9DF00D1124EE59F34F86A9DA
:1018E00097A9009711F00E94F53384E48C9DF001D4
:1018F0008D9DF00D1124EE59F34F138A128A168A2A
:10190000178A108E118E128E138E148E158E168ECF
:10191000178E10A211A281E090E093A382A315A2DA
:1019200014A216A217A210A611A613A612A615A6F7
:1019300014A616A617A610AA11AA13AA12AA15AAC7
:1019400014AA17AA16AA11AE10AE12AE13AE14AE98
:1019500015AEDF01DE961D921D921D921C9213970B
:10196000EE5BFF4F11821082DF91CF91FF90EF90DD
:10197000DF90CF9008950F931F93CF93DF93EB01E8
:10198000DC018D919C91FC01A681B781E881F981F0
:1019900023E0EE0FFF1F2A95E1F712962D913C915F
:1019A0001397E20FF31F00811181AC85BD859D0166
:1019B000220F331FDC0112968D919C911397D90150
:1019C000A80FB91F8D919C9124813581232B19F487
:1019D00061E070E002C062E070E0689F9001699F82
:1019E000300D789F300D112488859985289FB0018E
:1019F000299F700D389F700D1124EC81FD812E9F61
:101A0000C0012F9F900D3E9F900D1124800F911FBC
:101A1000FA019183808373836283DF91CF911F9159
:101A20000F9108952F923F924F925F926F927F9203
:101A30008F929F92AF92BF92CF92DF92EF92FF92DE
:101A40000F931F93CF93DF9300D000D0CDB7DEB7B5
:101A5000DC011496ED91FC9115970190F081E02D39
:101A6000808591859A838983A281B381BC83AB836E
:101A7000FB0181909190A190B1908F01C12CD12C4C
:101A80007601C814D904EA04FB040CF05FC0D80145
:101A900014964D905D906D907C90179718964D918F
:101AA0005D916D917C911B97F8017096FE83ED839B
:101AB000F801A081B18183E0AA0FBB1F8A95E1F7ED
:101AC000E981FA8182819381A80FB91F2D903C9002
:101AD0001197F80124853585220F331F8B819C8156
:101AE000280F391FF9010081118114968D919C9165
:101AF0001597892B19F481E090E002C082E090E014
:101B0000809F9001819F300D909F300D1124249F64
:101B10008001259F100D349F100D1124249DC001BC
:101B2000259D900D349D900D1124A8016D817E811D
:101B3000820D931D0E948D348D819E81080F191F87
:101B40009FEFC91AD90AE90AF90A9BCF26960FB660
:101B5000F894DEBF0FBECDBFDF91CF911F910F91E3
:101B6000FF90EF90DF90CF90BF90AF909F908F90BD
:101B70007F906F905F904F903F902F900895CF93FC
:101B8000DF93DB01AA5FB44F2C91222369F024E498
:101B9000269FF001279FF00D1124EE59F34FEF011E
:101BA00019922A95E9F71C9224E4269FF001279FB9
:101BB000F00D1124EE59F34F14821582168217820C
:101BC0001186108613861286118A108A1786168649
:101BD000DF91CF9164CE2F923F924F925F926F929E
:101BE0007F928F929F92AF92BF92CF92DF92EF92AD
:101BF000FF920F931F93CF93DF93CDB7DEB7289754
:101C00000FB6F894DEBF0FBECDBF6B017C011A0189
:101C100084E48C9D90018D9D300D11242E59334FFD
:101C2000F90184819581A681B781892B8A2B8B2B21
:101C300009F4B8C0A12CB12C412C512C32013887A9
:101C40002F83C90104969A838983D9011896BC838E
:101C5000AB83E981FA8180819181A281B3814816A9
:101C600059066A067B0694F5AB81BC81ED91FC9127
:101C7000EA0DFB1D228133818901812C912C821474
:101C80009304C4F4D801ED91FC91309769F08481FC
:101C900095812D833E830E94F533F80180819181E7
:101CA0000E94F5333E812D81FFEF8F1A9F0A0E5F50
:101CB0001F4FE5CFC9010E94F5338FEF481A580A2C
:101CC000680A780A94E0A90EB11CC3CFAF81B88529
:101CD00018968D919C9119970E94F533EF81F885A4
:101CE00082859385892B59F1A12CB12C812C912CC3
:101CF00084E48C9D80018D9D100D11240459134F97
:101D00008214930484F4D801ED91FC91EA0DFB1D3B
:101D1000848195810E94F533BFEF8B1A9B0AEEE018
:101D2000AE0EB11CEDCF84E48C9DF0018D9DF00DC5
:101D30001124EE59F34F828593850E94F53384E494
:101D40008C9D90018D9D300D112489010E59134FEA
:101D5000D80150968D919C9151970E94F533F801CE
:101D6000868597850E94F533C701B60198DDC701C6
:101D7000B60128960FB6F894DEBF0FBECDBFDF9137
:101D8000CF911F910F91FF90EF90DF90CF90BF9078
:101D9000AF909F908F907F906F905F904F903F900B
:101DA0002F90EDCE28960FB6F894DEBF0FBECDBFB4
:101DB000DF91CF911F910F91FF90EF90DF90CF9027
:101DC000BF90AF909F908F907F906F905F904F905B
:101DD0003F902F90089524E4269FF001279FF00D57
:101DE0001124EE59F34F828993890497029758F48E
:101DF00085E090E0938B828B8FEF9FEFDC01828FE9
:101E0000938FA48FB58F08952F923F924F925F9238
:101E10006F927F928F929F92AF92BF92CF92DF92FA
:101E2000EF92FF920F931F93CF93DF93CDB7DEB75F
:101E3000E0970FB6F894DEBF0FBECDBF9AA389A37B
:101E40001B016A012801390184E4849D8001859D7C
:101E5000100D112498012E59334F7901D9014D925B
:101E60005D926D927C921397AB01C301B201B3DE18
:101E7000F801EA59F34FD6014D915D916D917D9135
:101E80008D01CA01408351836283738364E070E0F3
:101E90000E944633F70191878087892B09F499C105
:101EA0001E8E1D8E198E1A8E1B8E1C8EF8A2EF8E22
:101EB00097012C5F3F4F38A72FA32C5F3F4F3AA7C6
:101EC00029A7EFA1F8A580819181A281B381298DF5
:101ED0003A8D4B8D5C8D281739074A075B070CF04C
:101EE000E4C0A9A5BAA58D919C912D8D3E8D280F9A
:101EF000391F3A8B298BD801ED91FC91EE0FFF1F12
:101F0000A9A1BAA18D919C91E80FF91F80819181BF
:101F1000F90191838083D80114962D913D914D91C3
:101F20005C9117972BA33CA34DA35EA3085F1F4FA3
:101F300062E070E0C1010E944633E989FA89938327
:101F40008283892B09F445C11D8A1E8A1F8A188E37
:101F50002D893E894F89588D8BA19CA1ADA1BEA131
:101F6000281739074A075B070CF08CC0D801ED90A1
:101F7000FC90EE0CFF1CE989FA89C280D380CE0C5C
:101F8000DF1C68E070E081E090E00E944633D601FB
:101F90008D939C93E989FA8982819381FC01EE0DEE
:101FA000FF1DC080D180C114D10409F412C1D80131
:101FB00014964D915D916D917C911797CA01F60130
:101FC0004083518362837383085F1F4F64E070E036
:101FD0000E944633D60115969C938E931497892BB5
:101FE00009F4F7C01C8A1B8A812C912C5401F6013C
:101FF00080819181A281B38188169906AA06BB06C9
:10200000A4F5F601E480F5802B893C89E20EF31EED
:10201000F801DE01119680E101900D928A95E1F7B9
:10202000005F1F4FA701BE016F5F7F4FA9A1BAA13B
:1020300014968D919C9115979EDCF601268137812F
:10204000D70112968D919C911397820F931F9783BE
:102050008683BFEF8B1A9B0AAB0ABB0A2B893C898C
:102060002C5F3F4F3C8B2B8BC2CF2D893E894F89F4
:10207000588D2F5F3F4F4F4F5F4F2D8B3E8B4F8BB8
:10208000588F66CF298D3A8D4B8D5C8D2F5F3F4FDA
:102090004F4F5F4F298F3A8F4B8F5C8F2D8D3E8D29
:1020A0002C5F3F4F3E8F2D8F0CCF6EE070E0C10153
:1020B0000E944633AF8DB8A11B969C938E931A97BE
:1020C000812C912CA12CB12CC12CD12C24E4249D49
:1020D000C001259D900D11249C012459334F3A8B4A
:1020E000298B21E030E0A214B3040CF04AC0D801DF
:1020F0004D915D916D917D918D01CA01E989FA89BA
:10210000E080F180E80CF91C57FD63C0D7011196FF
:102110003C932E930097A1F02FA738AB4BA75CA759
:102120006DA77EA70E946033F701958384832FA556
:1021300038A94BA55CA56DA57EA5892B31F449C0B6
:10214000D70115961C921E921497F7015383428370
:1021500084819581978386839187808713861286F1
:1021600081E090E0452B462B472B11F480E090E076
:10217000C80ED91EFFEFAF1ABF0A4EE0840E911CA5
:10218000B2CF84E4849D8001859D100D11240E59E9
:10219000134FD8011D961C921E921C97C60133E066
:1021A000880F991F3A95E1F70E946033F801918BEF
:1021B000808B892B71F0C601880F991F0E946033B4
:1021C000D8011F969C938E931E97892B11F080E067
:1021D00005C0A101C301B201FEDC81E0E0960FB6AB
:1021E000F894DEBF0FBECDBFDF91CF911F910F914D
:1021F000FF90EF90DF90CF90BF90AF909F908F9027
:102200007F906F905F904F903F902F9008952F9206
:102210003F924F925F926F927F928F929F92AF9276
:10222000BF92CF92DF92EF92FF920F931F93CF93C3
:10223000DF93CDB7DEB768970FB6F894DEBF0FBE59
:10224000CDBF9C8B8B8BDB0149015A0124E4289D77
:10225000C001299D900D11249C012E59334F790105
:102260002D913C911197F701358B248BFC01E85897
:10227000F34F14964D915D916D917C91179740832A
:10228000518362837383FC01E458F34F18964D9198
:102290005D916D917C911B97408351836283738321
:1022A000FC01E058F34F1C964D915D916D917C912E
:1022B0001F974083518362837383FC01E057F34F80
:1022C00050965C91509751964C91519752963C91F3
:1022D000529753962C915397508341833283238393
:1022E0008D010C5E1F4F852F942F181619060CF0C8
:1022F00068C0880F991F880F991F0E946033D7010B
:10230000D3969C938E93D297892B09F4BCC0212C31
:10231000312C412C512C32019701225D3F4F3E8BD5
:102320002D8B2C5F3F4F388F2F8B2E5F3F4F3A8B7B
:10233000298BB301A2012FEF421A520A620A720AD4
:10234000ED89FE8980819181A281B3814817590767
:102350006A077B074CF5AF89B88DCD90DC90C20C35
:10236000D31CF801DE01119680E101900D928A954F
:10237000E1F7005F1F4FA601BE016F5F7F4FEB8942
:10238000FC8984819581F7DAA989BA898D919C911C
:102390001197F60122813381820F931F8D939C93B5
:1023A000F4E02F0E311CC5CFD701D4968D919C91AE
:1023B000D5970E946033F70197AB86AB892B09F460
:1023C00062C0F80180819181A281B38124E4289DBB
:1023D000F001299DF00D1124EE59F34FAC01BD0120
:1023E0004D7F21E030E0452B462B472B11F020E0BC
:1023F00030E033A322A324E4289DF001299DF00DB1
:102400001124EE59F34F0197A109B10921E030E001
:102410000297A105B10510F020E030E035A324A318
:1024200084E4889DF001899DF00D1124CF01885727
:10243000934FD80114964D915D916D917C911797B2
:10244000DC014D935D936D937C931397EE59F34F9D
:10245000868D978DA0A1B1A1B7FF10C0B095A095B2
:10246000909581959F4FAF4FBF4F82AF93AFA4AF71
:10247000B5AF168E178E10A211A20AC012AE13AEFF
:1024800014AE15AE05C0C501B40109DA81E001C082
:1024900080E068960FB6F894DEBF0FBECDBFDF9127
:1024A000CF911F910F91FF90EF90DF90CF90BF9051
:1024B000AF909F908F907F906F905F904F903F90E4
:1024C0002F900895CF92DF92EF92FF92CF93DF93F8
:1024D0001092EA0C24E4269FF001279FF00D1124AE
:1024E000EE59F34F15A614A620E030E0C12CD12CF4
:1024F000DF011A96C1E0D0E0C416D506D4F4ED9100
:10250000FC911197E20FF31FE280F3801E141F0469
:1025100054F4E480F580F782E682F186E086138643
:102520001286D183C083EFEFCE1ADE0A225F3F4FBF
:10253000E3CF24E4269FF001279FF00D1124EE59EC
:10254000F34F13A612A611AE10AEDF01DE961D9258
:102550001D921D921C92139782E090E0938B828BC8
:10256000DF91CF91FF90EF90DF90CF90089524E41A
:10257000269FF001279FF00D1124EE59F34F138A87
:10258000128A29CB24E4269FF001279FF00D112405
:10259000EE59F34F8289938981309105C8F08530D7
:1025A000910518F0059769F008958FEF9FEFDC0112
:1025B000828F938FA48FB58F85E090E0938B828B71
:1025C00008958FEF9FEFDC01828F938FA48FB58FDB
:1025D000089524E4249FF001259FF00D1124EE5965
:1025E000F34F2EE0AC01249FC001259F900D1124D4
:1025F0000284F385E02DE80FF91F81E08093EA0C57
:102600008285938591878087408551852681378192
:1026100081E090E04217530711F080E090E0918351
:10262000808308952F923F924F925F926F927F9294
:102630008F929F92AF92BF92CF92DF92EF92FF92D2
:102640000F931F93CF93DF93CDB7DEB7C255D10958
:102650000FB6F894DEBF0FBECDBF21969FAF8EAFF1
:1026600021974BA75CA76DA77EA74801590184E479
:10267000889D8001899D100D1124F801EE59F34FBA
:102680002285338527963FAF2EAF2797828993897E
:10269000029709F060C186A597A5A0A9B1A9892BC9
:1026A0008A2B8B2B29F484E090E0938B828B53C18F
:1026B0008489958921964EAD5FAD219748175907BA
:1026C00009F049C186A997A99AAB89AB1EAE1DAE88
:1026D00019AE1AAE1BAE1CAE8F01DF019E96299675
:1026E000BFAFAEAF2997F2962B96FFAFEEAF2B9709
:1026F0009801285C3F4F2D963FAF2EAF2D97A80134
:102700004A5D5F4F2F965FAF4EAF2F97C8018296FD
:1027100061969FAF8EAF61971A976396BFAFAEAFCA
:1027200063972996EEADFFAD299780819181A281B3
:10273000B38129AD3AAD4BAD5CAD281739074A07D7
:102740005B070CF0E7C02B96EEADFFAD2B978081B9
:1027500091812DAD3EAD280F391F3EAB2DABD90178
:1027600012960D90BC91A02D2396BFAFAEAF2397CC
:10277000B695A795B695A7952596BFAFAEAF259709
:102780002D96EEADFFAD2D9780819181892B09F4B7
:1027900096C02F96AEADBFAD2F97CD90DD90ED904A
:1027A000FC9029A83AA8F9010190F081E02DF8AB3E
:1027B000EFA718AE1FAA8FA998AD2596AEADBFADF5
:1027C00025978A179B070CF07AC06196AEADBFAD16
:1027D00061978D919C91892B69F1EFA5F8A94080B3
:1027E000518062807380A7019601C301B2010E94EB
:1027F000243287FD0BC0A7019601D1016D917D9117
:102800008D919C910E94D82F87FD8CC0A7019601C5
:10281000C301B2010E942432181664F4A701960184
:10282000F10160817181828193810E94D82F882378
:1028300009F478C06396AEADBFAD63978D919C915E
:10284000892B69F1EFA5F8A94080518062807380DF
:10285000A7019601C301B2010E94D82F87FF0BC0C8
:10286000A7019601D1016D917D918D919C910E945E
:10287000243287FF57C0A7019601C301B2010E940D
:10288000D82F81110CC0A7019601F10160817181DF
:10289000828193810E94243218160CF443C02FA920
:1028A00038AD2F5F3F4F38AF2FAB34E0230E311CD4
:1028B0004FA558A94C5F5F4F58AB4FA77CCFEDA9F0
:1028C000FEA96081718123964EAD5FAD239789A9E2
:1028D0009AA90E948D3425968EAD9FAD2597880FBD
:1028E000991F880F991F29A93AA9280F391F3AABB8
:1028F00029AB89AD9AADABADBCAD0196A11DB11DA3
:1029000089AF9AAFABAFBCAFADADBEAD1496BEAFA5
:10291000ADAF07CF81E090E0D801D9969C938E931C
:10292000D89719C084E4889DF001899DF00D112489
:10293000EE59F34F868D978DA0A1B1A1892B8A2BDB
:102940008B2B09F064C284E090E0938B828B86AD80
:1029500097AD93A782A784E4889DF001899DF00D2F
:102960001124EE59F34F828993898230910571F4D5
:1029700082AD93ADA4ADB5AD181619061A061B06A7
:102980000CF04CC2CC24C394D12C05C0049709F0A0
:1029900045C2C12CD12C8EE02196EEADFFAD219722
:1029A0008E9F70018F9FF00C112427962EAD3FADA6
:1029B0002797E20EF31ED70112964D915C91139763
:1029C0004115510509F42AC216968D919C911797CD
:1029D0009AA789A7FE01319684E1DF011D928A95AD
:1029E000E9F7898A9A8AAB8ABC8AC114D10409F4AE
:1029F00057C084E4889DF001899DF00D1124EE59A3
:102A0000F34FDF01DE964D905D906D907C9082AD2E
:102A100093ADA4ADB5AD481659066A067B0609F01C
:102A20003FC0F701648175810084F185E02D8481C8
:102A30009581A681B7819C018D8B9E8BAF8BB88FC2
:102A4000285F3F4F3E8B2D8BD70118968D919C911F
:102A50001997280F391F19963C932E93189718969B
:102A60008D919C911997460F571F841B950B97FDCD
:102A700006C0860F971F19969C938E93189784E42F
:102A8000889DF001899DF00D1124E056F34FB1E0CF
:102A90004B1A510861087108408251826282738228
:102AA0009E012B5E3F4FAE01475D5F4F64E170E0DA
:102AB000C7010E94E60B082F10E00115110509F06F
:102AC00091C18CE090E0A0E0B0E08D839E83AF8365
:102AD000B8879E01235E3F4FAE01475D5F4F64E0C4
:102AE00070E0C7010E94E60B082F10E001151105E8
:102AF00009F078C180E190E0A0E0B0E08D839E8392
:102B0000AF83B8874D8D5E8DBE01655D7F4F8F8D24
:102B100098A10E948D348BA19CA1009761F06D8DCE
:102B20007E8DEBE2F0E0EC0FFD1F6E0F7F1F49A1E1
:102B30005AA10E948D341DA21EA21FA218A6219682
:102B40002EAD3FAD2197220F331F38AF2FAB24E4BA
:102B5000289DC001299D900D11248E59934FAC01E1
:102B60004C5F5F4F5AAF49AFDC011896BEAFADAFB7
:102B70002DA13EA14FA158A529AB3AAB4BAB5CAB05
:102B8000E9ADFAAD80819181A281B381281739071F
:102B90004A075B070CF0CFC0ADADBEADED91FC9127
:102BA00089A99AA9880F991F880F991FE80FF91F03
:102BB000A081B1818C91882309F4AFC0833009F4DE
:102BC000ACC00280F381E02D2FA938ADE20FF31FD6
:102BD0004081518158AB4FA7452B09F49EC0898590
:102BE0009A85AB85BC850196A11DB11D89879A8701
:102BF000AB87BC879E01235E3F4FAE01475D5F4FB1
:102C000064E070E0C7010E94E60B90E0009709F0D5
:102C1000E8C08D819E81AF81B8850496A11DB11D4C
:102C20008D839E83AF83B8874D8D5E8DBE016B5DB6
:102C30007F4F8F8D98A10E948D348BA19CA100970E
:102C400061F06D8D7E8DA5E2B0E0AC0FBD1F6A0F07
:102C50007B1F49A15AA10E948D341EAA1DAA412C96
:102C6000512C3201EFA5F8A980819181A281B38115
:102C7000481659066A067B060CF04FC0EFA5F8A966
:102C8000248035802DA93EA9220E331ED101129633
:102C90006D917C9113979E01235E3F4FAE01475D7E
:102CA0005F4FC7010E94E60B90E0009709F099C0C2
:102CB000F10182819381092E000CAA0BBB0B4D817F
:102CC0005E816F817885840F951FA61FB71F8D8346
:102CD0009E83AF83B887608171814D8D5E8D8F8DAE
:102CE00098A10E948D348BA19CA1009759F0D1012D
:102CF0006D917C912D8D3E8D620F731F49A15AA15C
:102D00000E948D34BFEF4B1A5B0A6B0A7B0AEDA958
:102D1000FEA93496FEABEDABA5CF49A85AA86BA887
:102D20007CA8FFEF4F1A5F0A6F0A7F0A4DA25EA2CE
:102D30006FA278A61DCF89859A85AB85BC85892B26
:102D40008A2B8B2B09F44EC08AE190E0A0E0B0E022
:102D500089839A83AB83BC8321962EAD3FAD2197A7
:102D6000C901330FAA0BBB0B8D879E87AF87B88B2A
:102D70004D895E89BE016F5F7F4F8F89988D0E945C
:102D80008D348B8D9C8D009761F06D897E8941E03B
:102D900050E04C0F5D1F640F751F498D5A8D0E94C6
:102DA0008D3489A59AA5D70117969C938E93169773
:102DB00011961C921E92CD2889F184E4889DF00121
:102DC000899DF00D1124E056F34F80819181A281FD
:102DD000B3810196A11DB11D80839183A283B3832A
:102DE0001DC08C01CD28D1F4012BC1F084E4889D55
:102DF000F001899DF00D1124EE59F34F81E090E030
:102E000095A784A785E090E0938B828B07C083E031
:102E100090E0938B828B81E090E09BCDCE5ADF4F88
:102E20000FB6F894DEBF0FBECDBFDF91CF911F91DB
:102E30000F91FF90EF90DF90CF90BF90AF909F9059
:102E40008F907F906F905F904F903F902F9008955C
:102E5000CF92DF92EF92FF920F931F936B017C0151
:102E600084E48C9DF0018D9DF00D1124EE59F34FFB
:102E700082899389009709F450C00197B9F482A51B
:102E800093A59C012F5F3F4F33A722A7092E000C6B
:102E9000AA0BBB0B028D138D248D358D80179107E6
:102EA000A207B307D1F5C701B6010CDB84E48C9D02
:102EB000F0018D9DF00D1124EE59F34F8289938915
:102EC000039759F582A593A59C012F5F3F4F33A728
:102ED00022A7092E000CAA0BBB0B468D578D60A1B3
:102EE00071A184179507A607B707BCF086AD97AD0B
:102EF00093A782A784E090E0938B828B82AD93AD01
:102F0000A4ADB5AD181619061A061B0634F4EE5B0F
:102F1000FF4F81E090E0918380831F910F91FF909C
:102F2000EF90DF90CF90089524E4269FF001279F33
:102F3000F00D1124EE59F34F828993890497B1F46F
:102F400082A593A5019693A782A7092E000CAA0B30
:102F5000BB0B46895789608D718D84179507A6072D
:102F6000B70721F485E090E0938B828B08952F9230
:102F70003F924F925F926F927F928F929F92AF9209
:102F8000BF92CF92DF92EF92FF920F931F93CF9356
:102F9000DF93CDB7DEB72C970FB6F894DEBF0FBE28
:102FA000CDBF49835A836B837C834901442E552EC0
:102FB00024E4249DF001259DF00D1124EE59F34FDA
:102FC000228933892450310915861486223031052F
:102FD00008F0DAC0DC0111961C921E9213961C9226
:102FE0001E921297A12CB12C60E070E09F01265F29
:102FF0003F4F3E832D837F013CE0E30EF11CDF0158
:103000005096B887AF839F01225F3F4F3A87298749
:10301000681579050CF06CC0ED81FE81A081B1814D
:103020009D012A0D3B1D3C872B87D9012D913C9199
:103030001197232B09F056C018960D911C911997E2
:1030400012962D903C90139716962D913C911797C0
:10305000F70140815181DA01E3E0AA0FBB1FEA9535
:10306000E1F7EF81F885C080D180FD01EC0DFD1DF9
:10307000440F551FA985BA85CD90DC904C0D5D1D80
:10308000DA016D937C93D7014D915C9111974F5F5D
:103090005F4F4D935C9313830283AB85BC851B9676
:1030A0003C932E931A970217130748F4201B310BF9
:1030B00031832083158214821782168213C0AB8558
:1030C000BC851496CD90DC901597A601420D531D3A
:1030D000401B510B518340832C193D0935832483B8
:1030E000D782C6826F5F7F4FBEE0AB0EB11C90CF20
:1030F00024E4249D8001259D100D11240E59134FA9
:10310000F80124853585DC0111963C932E93408986
:10311000518913965C934E93129746855785159661
:103120005C934E931497232BA1F58289938905977D
:1031300081F51092EA0C828D938DA48DB58DAE0130
:103140004F5F5F4F64E070E08F3F9F4FAF4FBF4FC7
:1031500059F480E290E00E94442669817A818B8153
:103160009C81A40104DA15C08FE190E00E944426FE
:10317000D8019B961C921E929A9781E090E05396FC
:103180009C938E93529705C0FC011182108213828A
:1031900012822C960FB6F894DEBF0FBECDBFDF9122
:1031A000CF911F910F91FF90EF90DF90CF90BF9044
:1031B000AF909F908F907F906F905F904F903F90D7
:1031C0002F900895EF92FF920F931F93CF93DF9369
:1031D0007C018B01EA010E94C726811121C08091E8
:1031E000080B9091090B049711F183E090E0909304
:1031F000090B8093080B1BC098819111F0CF28ED2B
:1032000038EB45E050E060E070E0CB010E945129CE
:10321000AE01B801C7010E945F29C8010E942A2996
:103220008091EB0C9091EC0C892B31F3D8CFDF918E
:10323000CF911F910F91FF90EF900895CF93DF935F
:103240002091080B3091090B2430310541F0EB013E
:103250000E945F29CE01DF91CF910C942A29DF9142
:10326000CF9108950C94742D0C94692D0C94572DC6
:103270000C943A290C94FB2C089560E070E080E0F7
:1032800090E00C94A2260895AF92BF92CF92DF9265
:10329000EF92FF920F931F93CF93DF931F921F9292
:1032A000CDB7DEB75C0169017A018B0180E090E067
:1032B000C114D104E104F104F1F0C114D10421E0FE
:1032C000E206F10410F4A60102C04FEF5FEF9E0189
:1032D0002F5F3F4FB801C5010E94172E8F3F2FEF80
:1032E000920749F029813A81C21AD30AE108F1080C
:1032F000020F131FDDCF0F900F90DF91CF911F9121
:103300000F91FF90EF90DF90CF90BF90AF90089516
:10331000089508951F920F920FB60F9211240BB6C5
:103320000F922F933F934F935F936F937F938F935E
:103330009F93AF93BF93EF93FF93E0910E0BF091A8
:103340000F0B1995FF91EF91BF91AF919F918F91C5
:103350007F916F915F914F913F912F910F900BBE95
:103360000F900FBE0F901F9018951F920F920FB6DF
:103370000F9211240BB60F922F933F934F935F93AD
:103380006F937F938F939F93AF93BF93EF93FF932D
:10339000E091100BF091110B1995FF91EF91BF91F6
:1033A000AF919F918F917F916F915F914F913F91DD
:1033B0002F910F900BBE0F900FBE0F901F9018957E
:1033C0001F920F920FB60F9211240BB60F922F93EC
:1033D0003F934F935F936F937F938F939F93AF939D
:1033E000BF93EF93FF93E091120BF091130B19959C
:1033F000FF91EF91BF91AF919F918F917F916F91CD
:103400005F914F913F912F910F900BBE0F900FBE88
:103410000F901F9018951F920F920FB60F921124C4
:103420000BB60F922F933F934F935F936F937F93BE
:103430008F939F93AF93BF93EF93FF93E091140B00
:10344000F091150B1995FF91EF91BF91AF919F915D
:103450008F917F916F915F914F913F912F910F903D
:103460000BBE0F900FBE0F901F9018951F920F92DA
:103470000FB60F9211240BB60F922F933F934F93D9
:103480005F936F937F938F939F93AF93BF93EF93CC
:10349000FF93E0910A0BF0910B0B1995FF91EF91BF
:1034A000BF91AF919F918F917F916F915F914F915C
:1034B0003F912F910F900BBE0F900FBE0F901F905A
:1034C00018951F920F920FB60F9211240BB60F9200
:1034D0002F933F934F935F936F937F938F939F931C
:1034E000AF93BF93EF93FF93E0910C0BF0910D0B13
:1034F0001995FF91EF91BF91AF919F918F917F911E
:103500006F915F914F913F912F910F900BBE0F9054
:103510000FBE0F901F9018951F920F920FB60F922B
:1035200011240BB60F922F933F934F935F936F939A
:103530007F938F939F93AF93BF93EF93FF93E0910C
:10354000160BF091170B1995FF91EF91BF91AF9169
:103550009F918F917F916F915F914F913F912F91AB
:103560000F900BBE0F900FBE0F901F9018951F92DB
:103570000F920FB60F9211240BB60F922F933F9319
:103580004F935F936F937F938F939F93AF93BF936B
:10359000EF93FF93E091180BF091190B1995FF91A0
:1035A000EF91BF91AF919F918F917F916F915F91BB
:1035B0004F913F912F910F900BBE0F900FBE0F9028
:1035C0001F9018951F920F920FB60F9211242F93F0
:1035D0003F938F939F93AF93BF938091EE0C909105
:1035E000EF0CA091F00CB091F10C3091ED0C23E0B8
:1035F000230F2D3720F40196A11DB11D05C026E82B
:10360000230F0296A11DB11D2093ED0C8093EE0CAB
:103610009093EF0CA093F00CB093F10C8091F20C0E
:103620009091F30CA091F40CB091F50C0196A11DB2
:10363000B11D8093F20C9093F30CA093F40CB09313
:10364000F50CBF91AF919F918F913F912F910F906A
:103650000FBE0F901F9018953FB7F8948091F20C11
:103660009091F30CA091F40CB091F50C26B5A89BA9
:1036700005C02F3F19F00196A11DB11D3FBFBA2F04
:10368000A92F982F8827820F911DA11DB11DBC0164
:10369000CD0142E0660F771F881F991F4A95D1F729
:1036A00008958F929F92AF92BF92CF92DF92EF9246
:1036B000FF926B017C01D0DF4B015C01C114D1048E
:1036C000E104F104F1F024DEC7DFDC01CB0188194D
:1036D0009909AA09BB09883E9340A105B10570F379
:1036E00021E0C21AD108E108F10888EE880E83E0D3
:1036F000981EA11CB11CC114D104E104F10421F7EE
:10370000DDCFFF90EF90DF90CF90BF90AF909F9074
:103710008F900895789484B5826084BD84B581606B
:1037200084BD85B5826085BD85B5816085BDEEE6C9
:10373000F0E0808181608083E1E8F0E010828081A8
:1037400082608083808181608083E0E8F0E0808116
:1037500081608083E1EBF0E0808184608083E0EB36
:10376000F0E0808181608083E1E9F0E08081826027
:103770008083808181608083E0E9F0E080818160E6
:103780008083E1EAF0E080818260808380818160D3
:103790008083E0EAF0E0808181608083E1E2F1E013
:1037A000808182608083808181608083E0E2F1E0BB
:1037B000808181608083EAE7F0E08081846080839B
:1037C0008081826080838081816080838081806845
:1037D00080831092C1000895863308F0865390913B
:1037E0007B00282F2870977F922B90937B00877007
:1037F00020911A0B90E4299F90011124822B809331
:103800007C0080917A00806480937A0080917A00B5
:1038100086FDFCCF809178002091790090E0922B7A
:1038200008951F93CF93DF93182FEB0161E016D11A
:10383000209711F460E004C0CF3FD10531F461E07E
:10384000812FDF91CF911F9145C1E12FF0E0E85624
:10385000FE4FE4914E2F50E0FA013197E231F1052D
:1038600008F09DC08827EE58FF4F8F4F0C942A33E5
:1038700084B5806884BDC7BD97C084B5806284BDAF
:10388000C8BD92C080918000806880938000D093F2
:103890008900C093880088C08091800080628093F6
:1038A0008000D0938B00C0938A007EC080918000FE
:1038B000886080938000D0938D00C0938C0074C08A
:1038C0008091B00080688093B000C093B3006CC05A
:1038D0008091B00080628093B000C093B40064C057
:1038E00080919000806880939000D0939900C0935D
:1038F00098005AC080919000806280939000D0938D
:103900009B00C0939A0050C0809190008860809383
:103910009000D0939D00C0939C0046C08091A00071
:1039200080688093A0008091A0008F7B8093A0008E
:10393000D093A900C093A80037C08091A0008062F6
:103940008093A000D093AB00C093AA002DC08091BB
:10395000A00088608093A000D093AD00C093AC001D
:1039600023C080912001806880932001D093290199
:10397000C093280119C080912001806280932001AA
:10398000D0932B01C0932A010FC080912001886041
:1039900080932001D0932D01C0932C0105C0C03825
:1039A000D1050CF04CCF46CFDF91CF911F910895F8
:1039B00090E0FC013197E231F10508F04EC0882714
:1039C000EC57FF4F8F4F0C942A33809180008F77F4
:1039D00003C0809180008F7D809380000895809146
:1039E0008000877FF9CF84B58F7702C084B58F7D43
:1039F00084BD08958091B0008F7703C08091B0009E
:103A00008F7D8093B0000895809190008F7707C0DC
:103A1000809190008F7D03C080919000877F80937C
:103A2000900008958091A0008F7707C08091A0003A
:103A30008F7D03C08091A000877F8093A0000895B0
:103A4000809120018F7707C0809120018F7D03C076
:103A500080912001877F809320010895CF93DF9389
:103A600090E0FC01E252FE4F2491FC01EC5DFD4F21
:103A70008491882361F190E0880F991FFC01EC5735
:103A8000FD4FC591D491FC01E659FD4FA591B4912C
:103A9000611109C09FB7F89488812095822388839B
:103AA000EC912E230BC0623061F49FB7F8943881FB
:103AB000822F809583238883EC912E2B2C939FBF9C
:103AC00006C08FB7F894E8812E2B28838FBFDF9133
:103AD000CF9108951F93CF93DF93282F30E0F90102
:103AE000E856FE4F8491F901E252FE4FD491F9015C
:103AF000EC5DFD4FC491CC23C1F0162F811158DF2E
:103B0000EC2FF0E0EE0FFF1FE659FD4FA591B491A9
:103B10008FB7F894111105C09C91ED2FE095E92322
:103B200002C0EC91ED2BEC938FBFDF91CF911F91F1
:103B30000895FC01918D228D892F90E0805C9F4F2C
:103B4000821B91098F7399270895FC01918D828DB5
:103B5000981731F0828DE80FF11D858D90E0089562
:103B60008FEF9FEF0895FC01918D828D981761F082
:103B7000828DDF01A80FB11D5D968C91928D9F5FA4
:103B80009F73928F90E008958FEF9FEF0895FC014F
:103B9000848DDF01A80FB11DA35ABF4F2C91848DD6
:103BA00090E001968F739927848FA689B7892C930B
:103BB000A089B1898C9180648C93938D848D9813A6
:103BC00006C00288F389E02D80818F7D808308956F
:103BD000CF93DF93EC01888D8823C1F0EA89FB89BC
:103BE000808185FD05C0A889B9898C9186FD0EC0AC
:103BF0000FB607FCF5CF808185FFF2CFA889B98980
:103C00008C9185FFEDCFCE01C2DFE8CFDF91CF9160
:103C10000895EF92FF920F931F93CF93DF93EC01E0
:103C200081E0888F9B8D8C8D981305C0E889F98978
:103C3000808185FD23C0F62E0B8D10E00F5F1F4F96
:103C40000F731127E02E8C8DE8120BC00FB607FC06
:103C5000FACFE889F989808185FFF5CFCE0197DF1A
:103C6000F2CF8B8DFE01E80FF11DE35AFF4FF0827A
:103C70000B8FEA89FB898081806207C0EE89FF890A
:103C80006083E889F98980818064808381E090E0A5
:103C9000DF91CF911F910F91FF90EF900895CF92F8
:103CA000DF92EF92FF921F93CF93DF93EC016A01B3
:103CB0007B01122FE889F98982E080834115514EFA
:103CC00061057105B1F060E079E08DE390E0A70156
:103CD00096010E940833DA01C9010197A109B109CF
:103CE000B695A79597958795AC01411580E1580742
:103CF000A8F0E889F989108260E874E88EE190E024
:103D0000A70196010E940833BA01A9014150510947
:103D1000610971097695679557954795EC85FD85FD
:103D20005083EE85FF854083188EEC89FD891083D2
:103D3000EA89FB89808180618083EA89FB898081AF
:103D400088608083EA89FB89808180688083EA8932
:103D5000FB8980818F7D8083DF91CF911F91FF90C0
:103D6000EF90DF90CF9008951F920F920FB60F92B1
:103D700011240BB60F922F938F939F93EF93FF9382
:103D8000E091060DF091070D8081E0910C0DF0910E
:103D90000D0D82FD12C0908180910F0D8F5F8F738A
:103DA0002091100D821751F0E0910F0DF0E0EA50D4
:103DB000F34F958F80930F0D01C08081FF91EF919C
:103DC0009F918F912F910F900BBE0F900FBE0F9070
:103DD0001F9018951F920F920FB60F9211240BB6D9
:103DE0000F922F933F934F935F936F937F938F9394
:103DF0009F93AF93BF93EF93FF9386EF9CE0C7DE53
:103E0000FF91EF91BF91AF919F918F917F916F91B2
:103E10005F914F913F912F910F900BBE0F900FBE6E
:103E20000F901F901895E6EFFCE01382128288EE47
:103E300093E0A0E0B0E084839583A683B78385ED0B
:103E40009BE09183808385EC90E09587848784EC68
:103E500090E09787868780EC90E0918B808B81EC57
:103E600090E0938B828B82EC90E0958B848B86EC38
:103E700090E0978B868B118E128E138E148E089580
:103E80001F920F920FB60F9211240BB60F922F9321
:103E90008F939F93EF93FF93E091A30DF091A40D67
:103EA0008081E091A90DF091AA0D82FD12C0908150
:103EB0008091AC0D8F5F8F732091AD0D821751F003
:103EC000E091AC0DF0E0ED56F24F958F8093AC0D84
:103ED00001C08081FF91EF919F918F912F910F9061
:103EE0000BBE0F900FBE0F901F9018951F920F9250
:103EF0000FB60F9211240BB60F922F933F934F934F
:103F00005F936F937F938F939F93AF93BF93EF9341
:103F1000FF9383E99DE03BDEFF91EF91BF91AF916D
:103F20009F918F917F916F915F914F913F912F91D1
:103F30000F900BBE0F900FBE0F901F901895E3E9E6
:103F4000FDE01382128288EE93E0A0E0B0E084836B
:103F50009583A683B78385ED9BE0918380838DEC69
:103F600090E0958784878CEC90E09787868788EC33
:103F700090E0918B808B89EC90E0938B828B8AEC24
:103F800090E0958B848B8EEC90E0978B868B118ED6
:103F9000128E138E148E08951F920F920FB60F92E9
:103FA00011240BB60F922F938F939F93EF93FF9350
:103FB000E091400EF091410E8081E091460EF0912B
:103FC000470E82FD12C090818091490E8F5F8F73E2
:103FD00020914A0E821751F0E091490EF0E0E05D29
:103FE000F14F958F8093490E01C08081FF91EF9131
:103FF0009F918F912F910F900BBE0F900FBE0F903E
:104000001F9018951F920F920FB60F9211240BB6A6
:104010000F922F933F934F935F936F937F938F9361
:104020009F93AF93BF93EF93FF9380E39EE0AFDD49
:10403000FF91EF91BF91AF919F918F917F916F9180
:104040005F914F913F912F910F900BBE0F900FBE3C
:104050000F901F901895E0E3FEE01382128288EE25
:1040600093E0A0E0B0E084839583A683B78385EDD9
:104070009BE09183808385ED90E09587848784ED34
:1040800090E09787868780ED90E0918B808B81ED23
:1040900090E0938B828B82ED90E0958B848B86ED04
:1040A00090E0978B868B118E128E138E148E08954E
:1040B0001F920F920FB60F9211240BB60F922F93EF
:1040C0008F939F93EF93FF93E091DD0EF091DE0EBF
:1040D0008081E091E30EF091E40E82FD12C09081A8
:1040E0008091E60E8F5F8F732091E70E821751F05B
:1040F000E091E60EF0E0E353F14F958F8093E60EEA
:1041000001C08081FF91EF919F918F912F910F902E
:104110000BBE0F900FBE0F901F9018951F920F921D
:104120000FB60F9211240BB60F922F933F934F931C
:104130005F936F937F938F939F93AF93BF93EF930F
:10414000FF938DEC9EE023DDFF91EF91BF91AF9146
:104150009F918F917F916F915F914F913F912F919F
:104160000F900BBE0F900FBE0F901F901895EDECA7
:10417000FEE01382128288EE93E0A0E0B0E0848338
:104180009583A683B78385ED9BE09183808385E348
:1041900091E09587848784E391E09787868780E321
:1041A00091E0918B808B81E391E0938B828B82E312
:1041B00091E0958B848B86E391E0978B868B118EB3
:1041C000128E138E148E08958F929F92AF92BF928B
:1041D000CF92DF92EF92FF920F931F93CF93DF93D3
:1041E0007C018B016C0182E0C80ED11C4701E5E027
:1041F0008E0E911CC0E0D0E0F60161916F014AE0A3
:1042000050E0C801C6D05C016EE2C80167D08A0DDB
:104210009B1DC80FD91FC814D90471F74AE050E09C
:10422000F7016581C801B5D08C0F9D1FDF91CF913B
:104230001F910F91FF90EF90DF90CF90BF90AF90C4
:104240009F908F900895EAE6FFE085EE9BE09183D2
:10425000808312821382148215820895CF92DF9296
:10426000EF92FF920F931F93CF93DF936C017A012C
:104270008B01C0E0D0E0CE15DF0589F0D8016D914B
:104280008D01D601ED91FC910190F081E02DC601E8
:104290001995892B11F47E0102C02196ECCFC7013C
:1042A000DF91CF911F910F91FF90EF90DF90CF9012
:1042B00008956115710579F0FB0101900020E9F77F
:1042C0003197AF01461B570BDC01ED91FC91028049
:1042D000F381E02D199480E090E00895DC01ED91E8
:1042E000FC910190F081E02D19944F925F926F92B2
:1042F0007F92EF92FF920F931F93CF93DF93CDB7EF
:10430000DEB7A1970FB6F894DEBF0FBECDBF7C011C
:10431000FA01CB0119A2223008F42AE08E010F5DC8
:104320001F4F422E512C612C712CBF01A301920111
:104330000E940833F901CA01015011096A3014F4CE
:10434000605D01C0695CD8016C93232B242B252B65
:1043500061F7B801C701ADDFA1960FB6F894DEBFD3
:104360000FBECDBFDF91CF911F910F91FF90EF90C6
:104370007F906F905F904F9008952115310541F423
:10438000DC01ED91FC910190F081E02D642F1994F6
:10439000ACCF9A01462F50E060E070E0EECF823063
:1043A000A9F028F4882349F0813051F00895843031
:1043B00021F1E8F0853039F1089510926E000895EA
:1043C00080916F008D7F80936F00089580917000C1
:1043D0008D7F8093700081E08093B0008091B10068
:1043E000887F84608093B1001092B300089580911B
:1043F00071008D7F809371000895809172008D7F90
:10440000809372000895809173008D7F8093730074
:104410000895CF93C82F80911B0B8C1307C0EEE932
:10442000F2E0E4918FEF80931B0B01C0EFEF8E2F32
:10443000B6DF60E08C2FCF914DCB1F920F920FB65D
:104440000F9211240BB60F922F933F934F935F93CC
:104450006F937F938F939F93AF93BF93EF93FF934C
:104460008091730F9091740FA091750FB091760F9A
:10447000892B8A2B8B2B51F18091700FE091710F5A
:10448000F091720F9081892780838091730F9091B2
:10449000740FA091750FB091760F181619061A06B1
:1044A0001B06BCF48091730F9091740FA091750F4F
:1044B000B091760F0197A109B1098093730F909382
:1044C000740FA093750FB093760F03C080911B0BF0
:1044D000A0DFFF91EF91BF91AF919F918F917F915D
:1044E0006F915F914F913F912F910F900BBE0F9065
:1044F0000FBE0F901F90189540E855E260E070E005
:1045000080E090E000C08130910571F01CF4892BAF
:1045100039F008958230910559F0039769F00895B4
:1045200026E086EF9CE00BC026E083E99DE007C013
:1045300026E080E39EE003C026E08DEC9EE0AFCB5A
:10454000DC01CB0186339105A105B10518F4C696AF
:10455000A11DB11D60E082CA1F920F920FB60F928B
:1045600011240BB60F922F933F934F935F936F934A
:104570007F938F939F93AF93BF93EF93FF938FE8B6
:104580009DEF90932501809324010E94512EFF916D
:10459000EF91BF91AF919F918F917F916F915F91BB
:1045A0004F913F912F910F900BBE0F900FBE0F9028
:1045B0001F9018958FE89DEF90932501809324011B
:1045C000A3E7B0E08C918E7F8C93E0E2F1E08081F4
:1045D0008C7F8083E1E2F1E08081877E808380812F
:1045E0008460808380818C7F80838C9181608C93B8
:1045F000089581E008956F927F928F929F92AF927B
:10460000BF92CF92DF92EF92FF920F931F93CF93BF
:10461000DF935C017B014A0101E010E00E151F05EC
:1046200064F568018FEFC81AD80AE801CC0FDD1FC6
:10463000C80DD91D6880798061147104E1F067EEBE
:104640007BE0C3010E949D34892B19F419821882E2
:1046500012C06AEE7BE0C3010E949D34892B59F49D
:10466000CE14DF0441F06801E2E0CE0ED11C1982C5
:1046700018821B821A828601D1CF81E0F5018083E6
:10468000B401C7010E949F2DF5019283818380E0D0
:1046900090E0DF91CF911F910F91FF90EF90DF900D
:1046A000CF90BF90AF909F908F907F906F90089524
:1046B00087E79FE0089580E008950F931F93CF93BD
:1046C000DF938B01BA01E901198218829801012E4A
:1046D000000C440B550BFC01818192810E9444190E
:1046E000019621F01983088380E001C081E0DF9109
:1046F000CF911F910F9108950F931F93CF93DF9345
:104700001F921F92CDB7DEB7FB018A01B9019E014E
:104710002F5F3F4FAF01FC01818192810E94B82D34
:10472000019639F089819A81F8019183808380E034
:1047300001C081E00F900F90DF91CF911F910F91F9
:104740000895FC01808108950895089581E0FB019A
:10475000808380E0089508951092A10F0895FC01D0
:10476000818192810C94962DCF93DF93CDB7DEB7E4
:104770002A970FB6F894DEBF0FBECDBFAC01CB01B8
:1047800060E070E049835A836B837C83092E000CC0
:10479000AA0BBB0B8D839E83AF83B8879E01275FD7
:1047A0003F4FAE014F5F5F4F68E070E08091900F28
:1047B0009091910F82DF811108C081E029853A85AF
:1047C0002830310519F480E001C081E02A960FB647
:1047D000F894DEBF0FBECDBFDF91CF9108950F9348
:1047E0001F93CF93DF931F921F92CDB7DEB78B013C
:1047F0009E012F5F3F4FAC018091900F9091910FE0
:104800005CDF811108C081E029813A8120173107DE
:1048100019F480E001C081E00F900F90DF91CF91FB
:104820001F910F910895CF93DF93EC011092940F95
:104830001092930F1092A00F10929F0FAC0160E0A6
:1048400070E0CB010E94B712AE0161E070E080E041
:1048500090E00E94B7128091900F9091910FDF919C
:10486000CF9179CF4F925F926F927F928F929F926A
:10487000AF92BF92CF92DF92EF92FF920F931F936E
:10488000CF93DF931F921F92CDB7DEB79C016C01CF
:1048900097FF03C087E0C80ED11C43E0D594C794AE
:1048A0004A95E1F7C90168E070E00E94F5327C01A9
:1048B00089010E5F1F4F80918E0F90918F0F80178F
:1048C00091070CF0DCC080918C0F90918D0F0097B8
:1048D00031F00E94F53310928F0F10928E0FC801A5
:1048E0000E94603390938D0F80938C0F892B29F059
:1048F00010938F0F00938E0FC2C0A12CB12CAC145B
:10490000BD040CF05EC0412C512C320100E010E0DF
:1049100098012B56304FAE014F5F5F4F61E070E062
:104920008091900F9091910FE7DE811198C189815C
:104930009A812FEF421A520A620A720A20E942163D
:104940002FE5520621E0620671043CF060919F0F52
:104950007091A00F8DEE90E02DC0080F191F0A3046
:10496000110551F549E050E060E070E085E99FE015
:104970000E94432E60919F0F7091A00F8823C1F079
:1049800080919D0F90E06817790709F0B8CF8EEEFF
:1049900090E0EADE80919F0F9091A00F01969927F9
:1049A0009093A00F80939F0F8FEFA81AB80AA7CFFC
:1049B0008FEE90E0D9DEA7CF0A3011050CF4A8CF16
:1049C0009ECFEF2809F44BC1C12CD12C760100E019
:1049D00010E098012B56304FAE014F5F5F4F61E002
:1049E00070E08091900F9091910F86DE811137C118
:1049F00089819A812FEFC21AD20AE20AF20A20E9CB
:104A0000C2162FE5D20621E0E206F1043CF06091E7
:104A10009F0F7091A00F8DEE90E02AC0080F191F14
:104A20000A30110539F549E050E060E070E085E9B1
:104A30009FE00E94432E60919F0F7091A00F8823EA
:104A4000A9F080919D0F90E06817790709F007C1E0
:104A50008EEE90E089DE80919F0F9091A00F0196DD
:104A600099279093A00F80939F0FF9C08FEE90E04D
:104A70007BDEAACF0A3011050CF4ABCFF0C000E00A
:104A800010E00C151D050CF077C0412C512C3201A3
:104A9000A12CB12C480193E0880C991C9A95E1F760
:104AA00020918C0F30918D0FC4018A0D9B1D280F12
:104AB000391FAE014F5F5F4F61E070E08091900F52
:104AC0009091910F19DE8111CAC089819A812FEFCF
:104AD000421A520A620A720A20E942162FE5520669
:104AE00021E0620671043CF060919F0F7091A00F6D
:104AF0008DEE90E034C0A80EB91E8AE0A816B1046D
:104B0000A9F549E050E0B40180918C0F90918D0F90
:104B10000E94432E60919F0F7091A00F8823E9F0AF
:104B200080918C0F90918D0FFC01E80DF91D80850F
:104B300090E06817790709F0A4CF8EEE90E014DEBC
:104B400080919F0F9091A00F019699279093A00FAD
:104B500080939F0F0F5F1F4F94CF8FEE90E004DE86
:104B6000412C512C3201A12CB12C9ACF2AE0A21653
:104B7000B1040CF495CF85CFE114F10409F46AC0B7
:104B8000680183E0CC0CDD1C8A95E1F7812C912C27
:104B9000540100E010E098012B56304FAE014F5FFA
:104BA0005F4F61E070E08091900F9091910FA4DDD4
:104BB000811155C089819A812FEF821A920AA20A27
:104BC000B20A20E982162FE5920621E0A206B1047E
:104BD0003CF060919F0F7091A00F8DEE90E034C07B
:104BE000080F191F0A30110589F549E050E060E00F
:104BF00070E085E99FE00E94432E60919F0F7091C5
:104C0000A00F8823F9F080919D0F90E06817790735
:104C100009F58EEE90E0A8DD80918C0F90918D0FBC
:104C2000A70165E97FE08C0D9D1D0E948D34809168
:104C30009F0F9091A00F019699279093A00F8093BA
:104C40009F0F08C08FEE90E08FDDA0CF0A301105D6
:104C50000CF4A1CF80918C0F90918D0F02C080E059
:104C600090E00F900F90DF91CF911F910F91FF90E7
:104C7000EF90DF90CF90BF90AF909F908F907F90FC
:104C80006F905F904F900895CF92DF92EF92FF92D6
:104C90000F931F93CF93DF931F92CDB7DEB76C01B5
:104CA0007B018A01452B31F0AB0160E070E0C80167
:104CB000E6D78983B701C60157DD81110DC0011503
:104CC000110551F0B701C8018ADD811105C061E00D
:104CD00070E0CE01019683DD0F90DF91CF911F919F
:104CE0000F91FF90EF90DF90CF900895CF92DF92D9
:104CF000EF92FF92CF93DF93CDB7DEB728970FB631
:104D0000F894DEBF0FBECDBF6B01E12CF12CC98240
:104D1000DA82EB82FC822D833E834F835887AE017B
:104D20004F5F5F4F68E070E0AFDF28960FB6F894F2
:104D3000DEBF0FBECDBFDF91CF91FF90EF90DF9030
:104D4000CF9008950F931F93CF93DF93EC018B01C6
:104D5000AFDC9093910F8093900F009739F0A801EA
:104D6000BE0149DCEC01892B19F40BC0C6EFDBE076
:104D70008091900F9091910FE7DC1092910F10921B
:104D8000900FCE01DF91CF911F910F9108958091E7
:104D9000900F9091910FD5CC2F923F924F925F92AE
:104DA0006F927F928F929F92AF92BF92CF92DF923B
:104DB000EF92FF920F931F93CF93DF93CDB7DEB7A0
:104DC00069970FB6F894DEBF0FBECDBF2091940F48
:104DD000222309F426C25D8B4C8B688B798B8A8BDE
:104DE0009B8B9A01AB01BC01CE0101960E94B717C3
:104DF00010E038E0232E312C89819A81181619068B
:104E00000CF00AC21F861E861D861C8689819A8127
:104E1000AC85BD85A817B9070CF0F3C1EB81FC8107
:104E20002E853F85E20FF31F2081318130938B0F58
:104E300020938A0F848195819093890F8093880FA6
:104E4000428153815093870F4093860F468157814B
:104E50005093850F4093840F820F931F9C01990FED
:104E6000440B550B2E8B3F8B488F598FC12CD12C67
:104E700076012E893F89488D598DC216D306E406E6
:104E8000F50608F0A2C11F8260918A0F70918B0F06
:104E90008B01072E000C220B330BD701C6010496A1
:104EA000A11DB11D80179107A207B30728F4E09157
:104EB000860FF091870F0AC0E4E0F0E0E61BF70BE5
:104EC000EC0DFD1D8091840F9091850FE80FF91F67
:104ED0004080512C612C712CD701C6010596A11D73
:104EE000B11D80179107A207B30728F4E091860F40
:104EF000F091870F0AC0E5E0F0E0E61BF70BEC0D40
:104F0000FD1D8091840F9091850FE80FF91F80811E
:104F1000582AD701C6010696A11DB11D8017910719
:104F2000A207B30728F4E091860FF091870F0AC01B
:104F3000E6E0F0E0E61BF70BEC0DFD1D8091840F21
:104F40009091850FE80FF91F8081682AD701C6016B
:104F50000796A11DB11D80179107A207B30728F47A
:104F6000E091860FF091870F0AC0E7E0F0E0E61BC2
:104F7000F70BEC0DFD1D8091840F9091850FE80FCC
:104F8000F91F8081782A4601570148E0840E911C60
:104F9000A11CB11C081519052A053B0508F4B4C06D
:104FA000C016D106E206F30638F48091860F909180
:104FB000870F8C0D9D1D09C0C601861B970B209184
:104FC000840F3091850F820F931F68E070E007DC3B
:104FD000E0918A0FF0918B0F9F010F2E000C440B74
:104FE000550BD301C201880D991DAA1DBB1D2817A1
:104FF00039074A075B07C8F082169306A406B50670
:1050000038F42091860F3091870FC601089609C0A9
:10501000C1018E1B9F0B8C0D9D1D2091840F309123
:10502000850F820F931FB20199C08601BF0168509E
:1050300071096C197D0982169306A406B50638F429
:105040002091860F3091870FC601089609C0C101D3
:105050008E1B9F0B8C0D9D1D2091840F3091850F11
:10506000820F931FBCDB80918A0F90918B0FB1014F
:10507000681B790B600F711F640D751D8091840F83
:105080009091850FACDB80918A0F90918B0FAC01D2
:1050900048505109FA01E01BF10BAC01092E000C3C
:1050A000660B770B84169506A606B70638F4209192
:1050B000860F3091870FC60108960AC09101281B00
:1050C000390BC9018C0D9D1D2091840F3091850FE6
:1050D000820F931FAF0160E070E0D1D58F832091E4
:1050E0008A0F30918B0FA101421B530B9A01200FA5
:1050F000311F240D351D40E050E0682F8091840F52
:105100009091850FA8D550C0C016D106E206F306CF
:10511000C8F46C197D098091860F9091870F8C0DD2
:105120009D1D5DDB80918A0F90918B0FB101681BF3
:10513000790B6C0D7D1D640D751D8091840F909110
:10514000850F0CC0C601861B970B2091840F3091F0
:10515000850FB201685F7F4F820F931F40DB809104
:105160008A0F90918B0FAC01092E000C660B770B08
:1051700084169506A606B70638F42091860F30915E
:10518000870FC60108960AC0D101A81BB90BCD0133
:105190008C0D9D1D2091840F3091850F820F931FE0
:1051A000A20160E070E06BD58F8361E070E0CE011A
:1051B000079615DB182FB8E04B0E511C611C711CB3
:1051C000C40CD51CE61CF71C54CE8C859D85880F1D
:1051D000991FED81FE81E80FF91F488959896A8975
:1051E0007B89808191810E94E9124C855D854F5FAA
:1051F0005F4F5D874C878E859F8508969F878E873A
:1052000005CE2C893D89488959896A897B89CE01D7
:1052100001960E94B717F0CD112319F08C899D8952
:1052200002DB69960FB6F894DEBF0FBECDBFDF91EB
:10523000CF911F910F91FF90EF90DF90CF90BF9093
:10524000AF909F908F907F906F905F904F903F9026
:105250002F900895CF93DF93EC01AC0160E070E0F4
:10526000CB019ADDAE0161E070E080E090E0DF917B
:10527000CF9192CDCF938091900F9091910F1BDAA7
:10528000C82F81110BC060E070E0CB010E94BF0D00
:1052900061E070E080E090E00E94BF0D8C2FCF9124
:1052A00008950F931F9389019A01AB01BC0180916E
:1052B000900F9091910F49DA1F910F9108953F92AD
:1052C0004F925F926F927F928F929F92AF92BF9216
:1052D000CF92DF92EF92FF920F931F93CF93DF93C2
:1052E000CDB7DEB767970FB6F894DEBF0FBECDBF60
:1052F0006C017B015A018091940F882331F08091D9
:10530000940F882309F45FC30AC064E97FE08091A9
:10531000900F9091910F1ADA811155C3F0CF8091BF
:10532000930F1A821982882309F46AC0E0E94E2E8D
:10533000EFE55E2E66246394712C00E010E0980186
:105340002658304FAE014F5F5F4F61E070E08091B3
:10535000900F9091910FD0D9982E81114DC08981D5
:105360009A81080F191F0115110509F445C081E044
:10537000481A51086108710839F460919F0F7091C3
:10538000A00F8DEE90E030C00A30110589F549E09C
:1053900050E060E070E08AE79FE075D460919F0F75
:1053A0007091A00F8823F1F08091820F90E0681730
:1053B0007907D9F48EEE90E0D7D988E0EAE7FFE0EC
:1053C000DE01199601900D928A95E1F720919F0FC9
:1053D0003091A00F2F5F3F4F33273093A00F2093C2
:1053E0009F0F0AC08FEE90E0BFD91A82198204C0C5
:1053F0000A3011050CF4A3CF81E029813A8124C041
:1054000000E010E078E0672E712C29E030E02C0FEE
:105410003D1F200F311FAE014F5F5F4FB301601B77
:10542000710B8091900F9091910F66D9982E2981E0
:105430003A81811108C0020F131F0115110519F0DF
:105440000830110514F381E0121613060CF080E009
:105450009110B6C2882309F4B6C28091930F8111CE
:1054600004C019861A861B861C8689859A85AB8599
:10547000BC858031910508F0A6C2FC018827EA5658
:10548000FF4F8F4F0C942A33D6011696ED91FC9165
:10549000179780819181A281B38189839A83AB839D
:1054A000BC83AE014F5F5F4F64E070E085E190E048
:1054B0007FC18D859E85D6D9009731F42FEF3FEFC0
:1054C000A90161E070E00EC0FC0180809180A280A3
:1054D000B380A701C501B4010E946212A501940125
:1054E00060E070E08DE190E069C28D859E85BAD95B
:1054F000009721F42FEF3FEFA90110C0DC018D9040
:105500009D90AD90BD90AD0195018401B701C6019C
:105510000E94040FA5019401882319F061E070E056
:1055200002C060E070E08BE190E048C28D859E850E
:1055300099D9009721F42FEF3FEFA9010FC0FC018B
:1055400081909190A190B190BF01A5019401C601F5
:105550000E940711A5019401882319F061E070E011
:1055600002C060E070E08CE190E028C2D6011496A1
:10557000ED91FC91159700811181F8018280938053
:10558000A080B18060E1462E512C612C712C4982A3
:105590005A826B827C8288E090E0A0E0B0E08D834C
:1055A0009E83AF83B8879E012F5E3F4FAE014F5F52
:1055B0005F4F68E070E08091900F9091910F7DD8DF
:1055C000882319F000E010E0BBC089899A89089708
:1055D000C9F7D801ED90FC90B8E0EB0EF11CEE0C91
:1055E000FF1CEE0CFF1CC7010E9460338C01892B4D
:1055F00049F349825A826B827C82C7010F2C000CCE
:10560000AA0BBB0B8D839E83AF83B8879E012F5E51
:105610003F4FAE014F5F5F4F68E070E08091900FA9
:105620009091910F4AD881118BC089899A890897E6
:1056300009F086C0D6011296ED91FC911397408136
:10564000518162817381D8014D935D936D937C93F9
:105650001397448155816681778114964D935D93AC
:105660006D937C9317974085518562857385189655
:105670004D935D936D937C931B9784859585A6854B
:10568000B785F80184879587A687B787108A118A1E
:10569000128A138A84E090E0A0E0B0E0848B958BBE
:1056A000A68BB78B8091080B9091090BA0E0B0E01E
:1056B000808F918FA28FB38FC5010B2C000CAA0B8A
:1056C000BB0B848F958FA68FB78FF401D80190966E
:1056D00080E090E08A159B0554F44191519160E07F
:1056E00070E04D935D936D937D930196F3CF9E0192
:1056F0002F5E3F4FA801B7018091900F9091910FBD
:105700000E945D2381111CC089899A898E159F058D
:10571000B9F4A70160E070E0C801B1D28B8B9E01A3
:105720002F5E3F4FAE014D5E5F4F61E070E08091B4
:10573000900F9091910F0E945D2381E08093930FD1
:10574000C80167960FB6F894DEBF0FBECDBFDF91DC
:10575000CF911F910F91FF90EF90DF90CF90BF906E
:10576000AF909F908F907F906F905F904F903F9001
:105770000C94F5338D859E85AF85B8890097A1057A
:10578000B10521F481E08093920F1DC16BD8009781
:1057900089F481E090E0A0E0B0E089839A83AB8354
:1057A000BC83AE014F5F5F4F64E070E082E190E048
:1057B0006BDA09C1BC01C6010E94120D19821A825E
:1057C0001B821C82AE014F5F5F4F64E070E082E19C
:1057D00090E05ADA8111F7C0D5CFD6011496ED9139
:1057E000FC9115970190F081E02D008511858FEFD8
:1057F00089830115110509F472C0D8016D907C9060
:10580000A280B38020E030E060E070E080E090E0D3
:10581000861597050CF5F801A281B381A20FB31F7D
:105820001296ED91FC911397EE0FFF1FEA0DFB1DF1
:105830000190F081E02D16960D90BC91A02DEA9F6D
:10584000A001EB9F500DFA9F500D1124640F751F9E
:105850000196285F3F4FDCCF83E190E00E94B423A4
:105860008111B1C0C12CD12CE12CF12CE614F7042C
:105870007CF5D8011296ED91FC911397EC0DFD1D6E
:1058800080809180A281B381AA0FBB1FAA0DBB1D8E
:105890002D913C9186819781289F2001299F500C52
:1058A000389F500C1124B201C4010E94EF23382EFE
:1058B000920140E050E06981C401CDD18983B8E014
:1058C000CB0ED11C31107FC0EFEFEE1AFE0ACECF07
:1058D00061E070E0CE0101960E94EF2374C060E0A9
:1058E00070E083E190E00E94B4236DC040E050E09E
:1058F00060E070E081E190E0C7D9811164C0812C43
:10590000912C5401C501B4010E94EB0E8091EA0C68
:10591000882321F0A701C501B4013EDAA701C50122
:10592000B4010E94EB0D8A9489288A288B2829F0DB
:10593000812C912C54018394E5CF1092940F1092F6
:10594000930F1092A00F10929F0F8091900F909143
:10595000910F0E94AC2337C081E090E09093EC0C53
:105960008093EB0C40E050E060E070E086E190E076
:105970001FCF81E0D5018C9326C08D859E850E9426
:105980003224009731F42FEF3FEFA90161E070E07E
:1059900013C0FC012081318142815381CA01B901C8
:1059A0002C8B3D8B4E8B5F8B0E94C2122C893D89C4
:1059B0004E895F8960E070E08EE190E097D903C086
:1059C000C7010E94132467960FB6F894DEBF0FBE7E
:1059D000CDBFDF91CF911F910F91FF90EF90DF909E
:1059E000CF90BF90AF909F908F907F906F905F907F
:1059F0004F903F900895CF92DF92EF92FF92CF9316
:105A0000DF93EC01C12CD12C7601C701B6010E94B5
:105A1000EB0EAE01C701B601BFD9AE01C701B60199
:105A20000E94EB0D80918C0F90918D0F009729F0C3
:105A3000DCD610928D0F10928C0FCA94CD28CE28F0
:105A4000CF2829F0C12CD12C7601C394DECF8091D0
:105A5000930F882359F040E050E060E070E084E16B
:105A600090E012D9F82E1092930F01C0F12C809182
:105A7000940F882341F01092940F81E090E090936E
:105A8000090B8093080B8091900F9091910F0E94C9
:105A9000AF238091900F9091910F0E94A4238F2D9E
:105AA000DF91CF91FF90EF90DF90CF900895CF934B
:105AB000DF93EC01AC0160E070E0CB010E9428179D
:105AC000AE0161E070E080E090E0DF91CF910C9456
:105AD000281760E070E0CB010E94941761E070E04D
